:100000000C9497020C94BF020C94BF020C94BF0294
:100010000C94BF020C94BF020C94BF020C94BF025C
:100020000C94BF020C94BF020C94BF020C94BF024C
:100030000C94BF020C94BF020C94BF020C94BF023C
:100040000C94670A0C94BF020C94D80B0C941B0CF4
:100050000C94BF020C94BF020C94BF020C94BF021C
:100060000C94BF020C94BF02535441544520574591
:100070004C434F4D45202D3E2049444C45005354A0
:1000800041544520494E4954202D3E2057454C436C
:100090004F4D450044454255473A20696E7075748E
:1000A000426F6F74537472696E67464C532E2E2ED6
:1000B00000535441544520494E49540053657475CA
:1000C000702E2E2E202763616D65206F6E2C2062AE
:1000D00065206D7920626162792C2063616D6520F5
:1000E0006F6E27003A4D50303038303A4D54303032
:1000F00033303A4D4D4B3A4D4330302C30302C4656
:1001000046003A4C50303038303A4C54303033306E
:100110003A4C4D4B3A4C4346462C30302C30300054
:1001200020746F3A200044454255473A2073657465
:10013000436F6C6F722066726F6D3A200020746F8F
:100140003A200044454255473A207365744D6F6428
:10015000652066726F6D3A2000206D732E20546901
:100160006D6572206E756D6265723A20004445427D
:1001700055473A20736574506175736520746F201C
:1001800000206D732E2054696D6572206E756D624E
:1001900065723A200044454255473A2073657454CD
:1001A000696D656F757420746F2000444542554732
:1001B0003A20436F6D6D616E642070726F6365737A
:1001C000736564207375636365737366756C6C79AE
:1001D0000044454255473A4C5320756E657870652A
:1001E0006374656420737562747970650044454278
:1001F00055473A204C5320756E6578706563746579
:1002000064206D6F64652C2069676E6F72696E671C
:100210002069740044454255473A20696E636F6D0A
:10022000706C657465206C735F6D6F64655F6F6E75
:10023000650044454255473A20696E636F6D706CA6
:10024000657465206C735F6D6F64655F6F6E6500CC
:1002500044454255473A20696E636F6D706C657412
:1002600065206C735F74696D656F757400444542F9
:1002700055473A20696E636F6D706C657465206CCC
:10028000735F74696D656F75740044454255473AF4
:10029000206E6577204C5320636F6C6F723A004478
:1002A000454255473A20696E636F6D706C657465A1
:1002B000206C735F636F6C6F720044454255473A20
:1002C00020696E636F6D706C657465206C65642069
:1002D000636F6D6D616E640044454255473A20502E
:1002E000524F544F434F4C20756E65787065637460
:1002F000656420747970650044454255473A205042
:10030000617273696E673A0044454255473A20442A
:10031000656275672069732064697361626C65004A
:1003200044454255473A2044656275672069732009
:10033000656E61626C650044454255473A4C5345D1
:100340004D3A3A72657365740044454255473A2008
:100350006E6F206D6F726520636F6D616E647320C8
:10036000696E20746865206C696E6500444542556D
:10037000473A4C53454D3A3A7265736574004445AB
:100380004255473A20446562756720697320646965
:100390007361626C650044454255473A204465628A
:1003A000756720697320656E61626C650020746FEB
:1003B0003A200044454255473A207365744D6F64B6
:1003C000652066726F6D3A200044454255473A20D9
:1003D000436F6D6D616E642070726F6365737365DA
:1003E00064207375636365737366756C6C79004420
:1003F000454255473A2050524F544F434F4C207579
:100400006E65787065637465642074797065004406
:10041000454255473A456E67696E6520756E657849
:1004200070656374656420737562747970650044E7
:10043000454255473A20456E67696E6520756E6581
:1004400078706563746564206D6F64652C206967DE
:100450006E6F72696E672069740044454255473A71
:1004600020696E636F6D706C65746520455F74699B
:100470006D656F75740044454255473A20696E6357
:100480006F6D706C65746520656E67696E6520635D
:100490006F6D6D616E640044454255473A2050616E
:1004A0007273696E673A0044454255473A206E6F51
:1004B000206D6F726520636F6D616E647320696E6D
:1004C00020746865206C696E6500000000070002FA
:1004D000010000030406000000000000000001020B
:1004E00004081020408001020408102001020408C2
:1004F00010200404040404040404020202020202A0
:1005000003030303030300000000250028002B0061
:1005100000000000240027002A006364696E6F70E9
:10052000737578585B00180AD70CA3108211112438
:100530001FBECFEFD8E0DEBFCDBF11E0A0E0B1E03D
:10054000E8E0FEE402C005900D92AC38B107D9F79F
:1005500016E0ACE8B1E001C01D92A934B107E1F7A3
:1005600015E0CEE2D5E004C02297FE010E94FE26EF
:10057000C632D107C9F70E942D0D0C94B2220C94FB
:100580000000FC0171836083538342830895CF93FD
:10059000DF93EC012DE030E04FEFFC01E05CFF4F1A
:1005A0004083FC01EF5BFF4F1082FC01EE5BFF4FCD
:1005B00010822150310903962115310571F7CE01C2
:1005C0002DE030E04FEFFC01E959FF4F1082FC01B4
:1005D000E859FF4F1082FC01E759FF4F408321503B
:1005E000310903962115310571F7AE01405C5F4F6B
:1005F00060E08A819B810E94A411AE0149595F4F3E
:1006000061E08A819B81DF91CF910C94A411CF93FB
:10061000DF93EC01663411F40E94C702CE010E9400
:10062000C702888199810E94EB188A819B810E9470
:10063000EB186091240684E296E0DF91CF910C9450
:100640008F0FFC01858596850895CF93DF9300D0A9
:1006500000D000D0CDB7DEB7AB011C821D821E8258
:10066000DC01ED91FC910190F081E02D19821A825C
:100670001B829E012F5F3F4FBE016C5F7F4F09952C
:1006800026960FB6F894DEBF0FBECDBFDF91CF9197
:10069000089580E090E0089580E991E0089580E970
:1006A00091E00895219A0895209A089580E493E0B6
:1006B0000C9486118DE492E00C94861180E493E012
:1006C0000C948F118DE492E00C948F1164E970E02A
:1006D0008CE695E00E94C80D62E071E088E994E044
:1006E0000E94BD2268E974E08091BF019091C00131
:1006F0000E94A21864EE70E088E994E00E94BD2296
:1007000068E974E08091C1019091C2010E94A21831
:1007100084E993E090936105809360056EE770E053
:100720008CE695E00C94C80D8091BF019091C001BA
:10073000FC0123A5203389F449960E94BA10892B25
:1007400061F48EEC93E0909361058093600568E618
:1007500070E08CE695E00C94C80D08956CEF74E0A1
:1007600088E994E00E94E9221092FC04109295041A
:1007700068E974E08091BF019091C0010E94A218C5
:1007800068E974E08091C1019091C2010E94A218B1
:1007900068E974E088E794E00C94401B809195042C
:1007A00081110C94AE030895E0916005F09161050C
:1007B0000995609192048FEB91E00E94070388E70E
:1007C00094E00C94871BFC018FE091E0918380837F
:1007D000138212828FEF8683878380878187828747
:1007E000838781E08487168615861582148280911E
:1007F000220690912306892B21F4F0932306E0939F
:100800002206A0912006B0912106109721F015969E
:10081000FC93EE931497F0932106E09320068FE16A
:1008200091E091838083089540E855E260E070E0B4
:100830008CE695E00E94560C6CEB70E08CE695E03F
:100840000E94C80D1092FC0486E693E09093610527
:100850008093600561EB70E08CE695E00E94C80D26
:100860008DE480934D028091B701811118C087EB10
:1008700091E00E943A0D892B91F08EE991E00E945F
:10088000E3031092AE011092AD0181E391E09093E9
:100890009F0180939E0187EB91E00E94430D20E031
:1008A00030E04AE050E06AE574E08EE991E00E94B1
:1008B00068108091AF01811118C08FEA91E00E9409
:1008C0003A0D892B91F08DE891E00E94E30310929C
:1008D0009D0110929C0183E491E090938E0180939E
:1008E0008D018FEA91E00E94430D20E030E04DE061
:1008F00050E063E374E08DE891E00C946810CF93CE
:10090000DF93EC010E94BD0A28813981621B730BC1
:100910006A307105B8F3DF91CF9108959F92AF923D
:10092000BF92CF92DF92EF92FF920F931F93CF93DC
:10093000DF93EC01E881F98195B1926085B18D7FFB
:1009400085B95A852F81D52ED21ADF82AF84AA812C
:10095000BB812D853C854E852F5F3F5F4F5FEE80CD
:10096000F8849984CB851181C12C0C2D6C2D7C2DA4
:1009700071811127889471117D0D08F47FEFD19456
:10098000889420FD170F1795889421FD170F179550
:10099000889422FD170F1795889423FD170F17953C
:1009A000889424FD170F1795889425FD170F179528
:1009B000889426FD170F1795889427FD170F179514
:1009C0008894072F2111012FD50E102F002C95B9D7
:1009D00000C017FF85B970810027889400C000C04F
:1009E000002C85B971117E0D00C0002C95B900C096
:1009F00016FF85B908F47FEFE194889400C000C029
:100A0000002C85B930FD070F00C0002C95B900C03F
:100A100015FF85B90795889431FD070F00C000C008
:100A2000002C85B90795889400C0002C95B900C0AA
:100A300014FF85B932FD070F0795889400C000C0E8
:100A4000002C85B933FD070F00C0002C95B900C0FC
:100A500013FF85B90795889434FD070F00C000C0C7
:100A6000002C85B90795889400C0002C95B900C06A
:100A700012FF85B935FD070F0795889400C000C0A7
:100A8000002C85B936FD070F00C0002C95B900C0B9
:100A900011FF85B90795889437FD070F00C000C086
:100AA000002C85B90795889400C0002C95B900C02A
:100AB00010FF85B9172F3111102FE90C00C000C0AD
:100AC000002C85B900C000C0002C95B900C017FFEC
:100AD00085B972810027889400C000C0002C85B9B8
:100AE00071117F0D00C0002C95B900C016FF85B9AB
:100AF00008F47FEFEA0DF11D00C000C0002C85B99D
:100B000040FD070F00C0002C95B900C015FF85B946
:100B10000795889441FD070F00C000C0002C85B9DF
:100B20000795889400C0002C95B900C014FF85B9C2
:100B300042FD070F0795889400C000C0002C85B9BE
:100B400043FD070F00C0002C95B900C013FF85B905
:100B50000795889444FD070F00C000C0002C85B99C
:100B60000795889400C0002C95B900C012FF85B984
:100B700045FD070F0795889400C000C0002C85B97B
:100B800046FD070F00C0002C95B900C011FF85B9C4
:100B90000795889447FD070F00C000C0002C85B959
:100BA0000795889400C0002C95B900C010FF85B946
:100BB000172F4111102FF19400C000C0002C85B9EF
:100BC000FC0E00C000C095B900C017FF85B9718147
:100BD0000027889400C000C0002C85B971117D0DDC
:100BE00000C0002C95B900C016FF85B908F47FEF4E
:100BF000D194889400C000C0002C85B920FD070F57
:100C000000C0002C95B900C015FF85B907958894E0
:100C100021FD070F00C000C0002C85B907958894FE
:100C200000C0002C95B900C014FF85B922FD070F44
:100C30000795889400C000C0002C85B923FD070FDC
:100C400000C0002C95B900C013FF85B907958894A2
:100C500024FD070F00C000C0002C85B907958894BB
:100C600000C0002C95B900C012FF85B925FD070F03
:100C70000795889400C000C0002C85B926FD070F99
:100C800000C0002C95B900C011FF85B90795889464
:100C900027FD070F00C000C0002C85B90795889478
:100CA00000C0002C95B900C010FF85B9172F211185
:100CB000102FD50E00C000C0002C85B9119709F087
:100CC00086CEDF91CF911F910F91FF90EF90DF9033
:100CD000CF90BF90AF909F9008950F931F93CF93A5
:100CE000DF93EC018B010F960E947F04F894C801FA
:100CF0000E948E04F8014281538120EE31E0DA0136
:100D00000E943226E4E09695879577956795EA9557
:100D1000D1F720E030E0EAE94E9F040E211D5E9FEE
:100D2000200D311D1124250F311D620F731F811DF0
:100D3000911D693EF3E07F078105910508F438C0F5
:100D4000DC01CB01885E9340A109B10922E0B69590
:100D5000A795979587952A95D1F740E050E027E031
:100D6000829F080E411D929F400D511D1124490F75
:100D7000511D2091620530E0280F391F240F351FC7
:100D80008091640590916505A0916605B091670515
:100D9000432F5527840F951FA11DB11D8093640516
:100DA00090936505A0936605B0936705209362054F
:100DB00078940E94BD0A788B6F87DF91CF911F9145
:100DC0000F9108959F92AF92BF92CF92DF92EF92D0
:100DD000FF920F931F93CF93DF93EC01E881F9818A
:100DE00095B1916085B18E7F85B95A852F81D52EB9
:100DF000D21ADF82AF84AA81BB812D853C854E85C6
:100E00002F5F3F5F4F5FEE80F8849984CB8511811F
:100E1000C12C0C2D6C2D7C2D7181112788947111A2
:100E20007D0D08F47FEFD194889420FD170F17955E
:100E3000889421FD170F1795889422FD170F179599
:100E4000889423FD170F1795889424FD170F179585
:100E5000889425FD170F1795889426FD170F179571
:100E6000889427FD170F17958894072F2111012FBC
:100E7000D50E102F002C95B900C017FF85B97081D1
:100E80000027889400C000C0002C85B971117E0D28
:100E900000C0002C95B900C016FF85B908F47FEF9B
:100EA000E194889400C000C0002C85B930FD070F84
:100EB00000C0002C95B900C015FF85B9079588942E
:100EC00031FD070F00C000C0002C85B9079588943C
:100ED00000C0002C95B900C014FF85B932FD070F82
:100EE0000795889400C000C0002C85B933FD070F1A
:100EF00000C0002C95B900C013FF85B907958894F0
:100F000034FD070F00C000C0002C85B907958894F8
:100F100000C0002C95B900C012FF85B935FD070F40
:100F20000795889400C000C0002C85B936FD070FD6
:100F300000C0002C95B900C011FF85B907958894B1
:100F400037FD070F00C000C0002C85B907958894B5
:100F500000C0002C95B900C010FF85B9172F3111C2
:100F6000102FE90C00C000C0002C85B900C000C0E3
:100F7000002C95B900C017FF85B9728100278894AD
:100F800000C000C0002C85B971117F0D00C0002C7D
:100F900095B900C016FF85B908F47FEFEA0DF11D81
:100FA00000C000C0002C85B940FD070F00C0002C18
:100FB00095B900C015FF85B90795889441FD070FC5
:100FC00000C000C0002C85B90795889400C0002C93
:100FD00095B900C014FF85B942FD070F07958894A5
:100FE00000C000C0002C85B943FD070F00C0002CD5
:100FF00095B900C013FF85B90795889444FD070F84
:1010000000C000C0002C85B90795889400C0002C52
:1010100095B900C012FF85B945FD070F0795889463
:1010200000C000C0002C85B946FD070F00C0002C91
:1010300095B900C011FF85B90795889447FD070F42
:1010400000C000C0002C85B90795889400C0002C12
:1010500095B900C010FF85B9172F4111102FF194D9
:1010600000C000C0002C85B9FC0E00C000C095B9BE
:1010700000C017FF85B971810027889400C000C0A7
:10108000002C85B971117D0D00C0002C95B900C0F0
:1010900016FF85B908F47FEFD194889400C000C092
:1010A000002C85B920FD070F00C0002C95B900C0A9
:1010B00015FF85B90795889421FD070F00C000C072
:1010C000002C85B90795889400C0002C95B900C004
:1010D00014FF85B922FD070F0795889400C000C052
:1010E000002C85B923FD070F00C0002C95B900C066
:1010F00013FF85B90795889424FD070F00C000C031
:10110000002C85B90795889400C0002C95B900C0C3
:1011100012FF85B925FD070F0795889400C000C010
:10112000002C85B926FD070F00C0002C95B900C022
:1011300011FF85B90795889427FD070F00C000C0EF
:10114000002C85B90795889400C0002C95B900C083
:1011500010FF85B9172F2111102FD50E00C000C028
:10116000002C85B9119709F086CEDF91CF911F91A0
:101170000F91FF90EF90DF90CF90BF90AF909F9036
:1011800008950F931F93CF93DF93EC018B010F967C
:101190000E947F04F894C8010E94E206F80142818F
:1011A000538120EE31E0DA010E94322604E0969568
:1011B0008795779567950A95D1F720E030E0EAE9C1
:1011C0004E9F040E211D5E9F200D311D1124250F01
:1011D000311D620F731F811D911D693EF3E07F0772
:1011E0008105910508F438C0DC01CB01885E93408D
:1011F000A109B109F2E0B695A79597958795FA955B
:10120000D1F740E050E027E0829F080E411D929FF9
:10121000400D511D1124490F511D2091620530E0F0
:10122000280F391F240F351F8091640590916505A3
:10123000A0916605B0916705432F5527840F951F30
:10124000A11DB11D8093640590936505A09366056B
:10125000B09367052093620578940E94BD0A788B4D
:101260006F87DF91CF911F910F910895FC01118A33
:10127000108A0895FF920F931F93CF93DF93EC0191
:1012800080918C018F5F982F977090938C0180FDD7
:1012900002C080E001C080E891FD8064947009F094
:1012A000806290E1F92EF80E20E030E000E011E0DD
:1012B000FE01E20FF31F6485662331F070E0C80180
:1012C0000E9470266F5F01C060E061874F2D469FCE
:1012D000040E40E0411D1124411102C0168202C0DB
:1012E00041504683662311F0615061872F5F3F4F65
:1012F00023303105E9F6DF91CF911F910F91FF90D7
:101300000895EF92FF920F931F93CF93DF93CDB782
:10131000DEB762970FB6F894DEBF0FBECDBF8C016B
:101320007A01F901DC011C968C917A8369835C83D4
:101330004B835E834D8390819D8791819E879281AF
:101340009F87813029F4CE0101960E943A0906C098
:101350001C861B861A86198618861F82188AB70172
:10136000CE0101960E943609D801ED91FC910484CA
:10137000F585E02DBE016F5F7F4FC801099562962C
:101380000FB6F894DEBF0FBECDBFDF91CF911F9196
:101390000F91FF90EF900895EF92FF920F931F939C
:1013A000CF93DF93CDB7DEB762970FB6F894DEBF69
:1013B0000FBECDBF8C017A01F901DC011C968C9126
:1013C0007A8369835C834B835E834D8390819D87A1
:1013D00091819E8792819F87813029F4CE01019669
:1013E0000E943A0906C01C861B861A861986188632
:1013F0001F8283E0888BB701CE0101960E943609D7
:10140000D801ED91FC910484F585E02DBE016F5F5C
:101410007F4FC801099562960FB6F894DEBF0FBEE4
:10142000CDBFDF91CF911F910F91FF90EF90089565
:101430000F931F9388E794E00E94F41B06E513E0E6
:101440002EE533E04AE06AE574E080E493E00E9430
:10145000B5130AE513E022E633E04DE063E374E000
:101460008DE492E00E94B5134DE452E060E473E035
:101470008FEB91E01F910F910C94C1028CE695E0E7
:101480000E94410B892B11F18CE695E00E946E0BB6
:101490002091960430919704803264F481E0809327
:1014A0009504F901E450FB4F1082109297041092BA
:1014B00096040895A9014F5F5F4F5093970440939E
:1014C0009604F901E450FB4F8083D8CF08951F9212
:1014D0000F920FB60F9211242F933F938F939F93E8
:1014E000AF93BF938091640590916505A0916605C7
:1014F000B09167053091630523E0230F2D3720F469
:101500000196A11DB11D05C026E8230F0296A11D5D
:10151000B11D209363058093640590936505A093A6
:101520006605B09367058091680590916905A09163
:101530006A05B0916B050196A11DB11D80936805E8
:1015400090936905A0936A05B0936B05BF91AF9125
:101550009F918F913F912F910F900FBE0F901F90F1
:1015600018952FB7F8946091640570916505809186
:101570006605909167052FBF08953FB7F894809155
:10158000680590916905A0916A05B0916B0526B533
:10159000A89B05C02F3F19F00196A11DB11D3FBFAB
:1015A0006627782F892F9A2F620F711D811D911D3B
:1015B00042E0660F771F881F991F4A95D1F708955B
:1015C000CF92DF92EF92FF92CF93DF936B017C017A
:1015D0000E94BD0AEB01C114D104E104F10479F0C9
:1015E0000E94BD0A6C1B7D0B683E7340A0F381E036
:1015F000C81AD108E108F108C851DC4FECCFDF91DF
:10160000CF91FF90EF90DF90CF900895789484B5BC
:10161000826084BD84B5816084BD85B5826085BDEE
:1016200085B5816085BDEEE6F0E0808181608083D4
:10163000E1E8F0E0108280818260808380818160B7
:101640008083E0E8F0E0808181608083E1EBF0E07E
:10165000808184608083E0EBF0E080818160808322
:10166000EAE7F0E08081846080838081826080830B
:101670008081816080838081806880831092C10036
:101680000895FC0124853585F901E05CFF4F8081D8
:101690009181F901EE5BFF4F20813181821B930B19
:1016A0008F7399270895FC0184859585FC01E05C82
:1016B000FF4F40815181FC01EE5BFF4F2081318162
:1016C0004217530741F00190F081E02DE80FF91F18
:1016D000808190E008958FEF9FEF0895FC0184854D
:1016E0009585FC01E05CFF4F40815181FC01EE5B80
:1016F000FF4F208131814217530779F0A081B181DA
:10170000A80FB91F8C91208131812F5F3F4F2F731C
:1017100033273183208390E008958FEF9FEF089562
:10172000FC0181A1882329F0A489B5898C9186FFC9
:10173000FBCF11A20895CF93DF93FC012685378557
:10174000D901A05CBF4F8D919C91119701968F7329
:101750009927E901CE5BDF4F4881598184179507AE
:10176000D9F30D90BC91A02DA20FB31F6C93A68549
:10177000B785A05CBF4F11969C938E93A689B789BD
:101780002C9181E090E0078C02C0880F991F0A9489
:10179000E2F7282B2C9381E081A30488F589E02DC2
:1017A00080818064808381E090E0DF91CF91089513
:1017B0001F920F920FB60F9211242F933F934F93C6
:1017C0008F939F93EF93FF938091C00082FD1CC085
:1017D0004091C600809112069091130601968F7376
:1017E000992720911406309115068217930771F0FE
:1017F000E0911206F0911306EE52FA4F4083909357
:1018000013068093120602C08091C600FF91EF91EB
:101810009F918F914F913F912F910F900FBE0F90FD
:101820001F9018958CE695E00E94410B892B11F0D2
:101830000C943E0A08951F920F920FB60F92112436
:101840002F933F938F939F93EF93FF932091CE0518
:101850003091CF058091D0059091D1052817390797
:1018600031F48091C1008F7D8093C10014C0E0915C
:10187000D005F091D105E257FA4F20818091D00533
:101880009091D10501968F7399279093D1058093FC
:10189000D0052093C600FF91EF919F918F913F91CA
:1018A0002F910F900FBE0F901F901895CF92DF923F
:1018B000EF92FF92CF93DF93EC016A017B01411518
:1018C00081EE580761057105F9F0EC89FD8981E029
:1018D00090E008A002C0880F991F0A94E2F7808365
:1018E00060E079E08DE390E0A70196010E948426F4
:1018F000215031094109510956954795379527954A
:10190000211580E1380798F0EC89FD89108260E8A4
:1019100074E88EE190E0A70196010E948426215090
:101920003109410951095695479537952795E88919
:10193000F9893083EA89FB89208319A2EE89FF891E
:10194000408181E090E09C010C8C02C0220F331F8B
:101950000A94E2F7422B4083EE89FF8940819C0183
:101960000D8C02C0220F331F0A94E2F7422B4083F2
:10197000EE89FF8940819C010E8C02C0220F331F2B
:101980000A94E2F7422B4083EE89FF8920810F8C75
:1019900002C0880F991F0A94E2F780958223808302
:1019A000DF91CF91FF90EF90DF90CF90089510924C
:1019B0006F0510926E0588EE93E0A0E0B0E0809392
:1019C000700590937105A0937205B093730585E53A
:1019D00091E090936D0580936C0582ED95E0909376
:1019E0007905809378058EE895E090937B05809348
:1019F0007A0585EC90E090937D0580937C0584ECDE
:101A000090E090937F0580937E0580EC90E090932A
:101A100081058093800581EC90E09093830580930D
:101A2000820582EC90E0909385058093840586EC96
:101A300090E0909387058093860584E080938805E5
:101A400083E08093890587E080938A0585E0809311
:101A50008B0581E080938C0508950E94060B0E94FF
:101A60001404C2E1DCE00E94D4032097E1F30E9459
:101A7000120CF9CFFC0181E090E02081222311F0CB
:101A800080E090E0089521E0FC012083089508950E
:101A9000CF92DF92EF92FF920F931F93CF93DF933A
:101AA0006C017A01EB01E60EF71E00E010E0CE15A6
:101AB000DF0561F06991D601ED91FC910190F08113
:101AC000E02DC6010995080F191FF1CFC801DF915C
:101AD000CF911F910F91FF90EF90DF90CF900895DD
:101AE0006115710581F0DB010D900020E9F7AD0172
:101AF00041505109461B570BDC01ED91FC910280CE
:101B0000F381E02D099480E090E00895EF92FF9238
:101B10000F931F93CF93DF938C01FB01C0E0D0E0C4
:101B200064917F018FEFE81AF80A662361F0D8010B
:101B3000ED91FC910190F081E02DC8010995C80F4D
:101B4000D91FF701EDCFCE01DF91CF911F910F91FA
:101B5000FF90EF9008950C94700DDC01ED91FC91D5
:101B60000190F081E02D09940F931F93CF93DF93A1
:101B7000EC016DE00E94AD0D8C016AE0CE010E9487
:101B8000AD0D800F911FDF91CF911F910F9108959F
:101B90000F931F93CF93DF93EC010E94860D8C016E
:101BA000CE010E94B40D800F911FDF91CF911F9144
:101BB0000F9108950F931F93CF93DF93EC010E9431
:101BC000700D8C01CE010E94B40D800F911FDF912A
:101BD000CF911F910F9108950F931F93CF93DF9390
:101BE000EC010E94AD0D8C01CE010E94B40D800F5E
:101BF000911FDF91CF911F910F9108958F929F9226
:101C0000AF92BF92CF92DF92EF92FF920F931F930A
:101C1000CF93DF93CDB7DEB7A1970FB6F894DEBFB1
:101C20000FBECDBF7C01C42EE52FCB01D22E19A251
:101C300021E02D1510F02AE0D22E8E010F5D1F4FEE
:101C40008D2C912CA12CB12C6C2D7E2FA5019401F3
:101C50000E9484268C2DD29E8019112401501109D6
:101C60008A3014F4805D01C0895CF80180832115FD
:101C700031054105510521F0C22EE32FCA01E4CF01
:101C8000B801C7010E94700DA1960FB6F894DEBF8F
:101C90000FBECDBFDF91CF911F910F91FF90EF90BD
:101CA000DF90CF90BF90AF909F908F900895CF928C
:101CB000DF92EF92FF920F931F93CF93DF93EC018C
:101CC0006A017B012115310579F4E881F9810190E0
:101CD000F081E02D642FDF91CF911F910F91FF9044
:101CE000EF90DF90CF9009942A303105E9F477FF27
:101CF0001AC06DE20E94AD0D8C0144275527BA0130
:101D00004C195D096E097F092AE0CE010E94FE0D83
:101D1000800F911FDF91CF911F910F91FF90EF9056
:101D2000DF90CF9008952AE0B701A601CE01DF91A0
:101D3000CF911F910F91FF90EF90DF90CF900C9477
:101D4000FE0D9A01AB01662757FD6095762F0C9426
:101D5000570E0F931F93CF93DF93EC019A01AB01C2
:101D6000662757FD6095762F0E94570E8C01CE0195
:101D70000E94B40D800F911FDF91CF911F910F91A1
:101D800008952115310541F4DC01ED91FC9101909C
:101D9000F081E02D642F09940C94FE0D9A01462FDA
:101DA00050E060E070E00C94C10E9A01AB0160E07D
:101DB00070E00C94C10E0F931F93CF93DF93EC014F
:101DC0000E94C10E8C01CE010E94B40D800F911FA4
:101DD000DF91CF911F910F9108958F929F92AF92B3
:101DE000BF92EF92FF920F931F93CF93DF93EC017B
:101DF000188219821A824423B9F1E0E0F0E08B01E5
:101E00000A5F1F4F7B0189E0E80EF11C842E912CA4
:101E1000A12CB12CD801AE0FBF1F2C91D701AE0F52
:101E2000BF1F6C912223E1F06623D1F030E040E047
:101E300050E02F5F3F4F4F4F5F4F70E080E090E0EA
:101E40006F5F7F4F8F4F9F4F0E944C269B01AC01CD
:101E5000C501B4010E944C26DE01AE0FBF1F8C935A
:101E60003196E330F105B1F6CE01DF91CF911F91AC
:101E70000F91FF90EF90BF90AF909F908F9008953B
:101E8000CF92DF92EF92FF92CF93DF93EC0180919C
:101E90001A0690911B069C012F5F3F4F30931B0643
:101EA00020931A06861797079CF10E94B10A9B019E
:101EB000AC01E0911A06F0911B0688EE93E0E89FD2
:101EC000B001E99F700DF89F700D1124882777FDF0
:101ED0008095982FC0901606D0901706E0901806AF
:101EE000F09019062C193D094E095F090E948426BD
:101EF0003A83298310921B0610921A060E94B10A97
:101F0000609316067093170680931806909319062F
:101F1000DF91CF91FF90EF90DF90CF9008958F9257
:101F20009F92AF92BF92EF92FF920F931F93CF9326
:101F3000DF9300D01F92CDB7DEB78C01F62EF801EB
:101F400083819481A581B681892B8A2B8B2BD1F03B
:101F50000E94BD0A80901C0690901D06A0901E064F
:101F6000B0901F06681979098A099B09D801139650
:101F70008D909D90AD90BC901697681579058A0557
:101F80009B05E8F20E94BD0A60931C0670931D0633
:101F900080931E0690931F06D8011B96ED91FC912D
:101FA0001C97309751F0D80117964D915D916D9126
:101FB0007C911A978F2D0995F82EA0902206B0904B
:101FC0002306A114B10451F1F501E484D80111965E
:101FD0008D919C9112978436910508F41486D50151
:101FE000ED91FC91828093804F2DB501CE01019639
:101FF0000E94ED0EF50145855685628173819E0133
:102000002F5F3F4FC501F4010995D5011C96EC9255
:102010001C971496AD90BC901597D3CF69E170E0F2
:10202000C8010E94400F0F900F900F90DF91CF9149
:102030001F910F91FF90EF90BF90AF909F908F9066
:102040000895CF92DF92EF92FF920F931F93CF9359
:10205000DF93EC014423F1F06115710581F19B01DF
:1020600040E050E060E472E48FE090E00E94A62639
:10207000CB80DC80ED80FE8089019A010C151D0566
:102080002E053F0510F4970186010B831C832D83D9
:102090003E8315C06115710571F09B0140E050E071
:1020A00060E472E48FE090E00E94A6262B833C83DC
:1020B0004D835E8304C01B821C821D821E82DF91C1
:1020C000CF911F910F91FF90EF90DF90CF900895E7
:1020D000CF92DF92EF92FF920F931F93CF93DF93F4
:1020E000EC016B018A017901121613061CF07A01CA
:1020F00000E010E0E881F9810480F581E02DCE0157
:102100000995C801880F991F800F911F8C0D9D1D87
:102110009B838A83FE86ED86E881F9810284F385BC
:10212000E02DCE01099541E0BC0184E296E00E94D9
:102130002110CE01DF91CF911F910F91FF90EF9071
:10214000DF90CF9008958FEF80932406109226069B
:10215000109225061092300610922F068FEF9FEFF7
:10216000DC0180932B0690932C06A0932D06B09350
:102170002E060895FC01808991898F3F2FEF9207E9
:1021800069F0268537858217930724F0821B930B0D
:1021900001960895821B930B0896089580E090E0C5
:1021A0000895EF92FF920F931F93CF93DF93EC016B
:1021B0007B0161157105F9F00E94BA100797DCF4F4
:1021C000888999898F3F2FEF920729F4198A188AF5
:1021D0001F861E8603C00196998B888B08891989F2
:1021E000C7010E94C422F801EE0FFF1FEC0FFD1F74
:1021F0009183808302C00FEF1FEFC801DF91CF9161
:102200001F910F91FF90EF9008950F931F93CF931D
:10221000DF93EC018B010E94BA10892B19F0073073
:10222000110518F080E090E007C0F801EE0FFF1FE5
:10223000EC0FFD1F80819181DF91CF911F910F9154
:102240000895FC01668577850C9405110F931F9303
:10225000CF93DF93EC010E9421110097D9F00E94E7
:1022600092200E851F85F801EE0FFF1FEC0FFD1F5A
:1022700011821082CE010E94BA10019739F48FEFBB
:102280009FEF9F878E87998B888B04C00F5F1F4FAE
:102290001F870E87DF91CF911F910F910895FC0149
:1022A00027E030E0119211922150310921153105BA
:1022B000C9F72FEF3FEFFC0137872687318B208B43
:1022C00008950C944F11EF92FF920F931F93CF93A9
:1022D000DF937C01C82FDF2D07E010E089919991F1
:1022E000009711F00E94922001501109011511056B
:1022F000A9F7C701DF91CF911F910F91FF90EF9048
:102300000C944F1181E396E00C944F11FC01E351C2
:10231000FF4F21E0208320E3FC0123A70895825191
:102320009F4F21E0FC01208308958D519F4FFC01B8
:102330006083662319F060E273E002C068E073E036
:102340008CE695E00C94C80D860F911D860F911DAB
:10235000FC01548343830895EF92FF920F931F93E0
:10236000CF93DF93EC017B01FC01EB51FF4F7183B5
:1023700060838C0107511F4FF8016081718177FDE7
:1023800003C0C0960E94081E8FEF9FEFF801918353
:102390008083E114F10409F441C0FE01E151FF4FD3
:1023A0000190F081E02D9701A4E6B0E00E94232681
:1023B000AB01BC019F01CE01C0960E94FF1DF80138
:1023C00091838083CD51DF4F8881882339F165E97E
:1023D00071E08CE695E00E94860D84E68E9DB0014A
:1023E0008F9D700D11244AE050E08CE695E00E942C
:1023F000D50E61E871E08CE695E00E94860DF8014B
:10240000608171814AE050E08CE695E0DF91CF91E8
:102410001F910F91FF90EF900C94A90EDF91CF9137
:102420001F910F91FF90EF900895EF92FF920F93FD
:102430001F93CF93DF93EC017B01FC01E951FF4F28
:10244000718360838C0105511F4FF8016081718198
:1024500077FD03C0C0960E94081E8FEF9FEFF80122
:1024600091838083E114F104B1F1FE01EF50FF4F3D
:1024700020813181A70160E070E0CE01C0960E940A
:10248000FF1DF80191838083CD51DF4F8881882320
:1024900011F16DE671E08CE695E00E94860D4AE050
:1024A00050E0B7018CE695E00E94D50E69E571E039
:1024B0008CE695E00E94860DF801608171814AE00A
:1024C00050E08CE695E0DF91CF911F910F91FF9046
:1024D000EF900C94A90EDF91CF911F910F91FF9077
:1024E000EF9008951F93CF93DF93EC01162FFC011B
:1024F000ED51FF4F80818823B1F063E471E08CE6F9
:1025000095E00E94860D6BA58CE695E00E94AD0DCE
:102510006DE371E08CE695E00E94860D612F8CE6FC
:1025200095E00E94EC0D1BA7DF91CF911F910895BC
:10253000EF92FF920F931F93CF93DF93EC01142F31
:10254000052FF62EE72EFC01ED51FF4F80818823E9
:1025500059F166E271E08CE695E00E94860D8DA54A
:10256000811109C08EA5811106C081E09FA591113E
:1025700003C080E001C081E0682F70E040E150E0DE
:102580008CE695E00E94A10E60E271E08CE695E099
:102590000E94860D20E130E0412F502F6F2D7E2DBF
:1025A0008CE695E00E94DB0EFDA60EA71FA7DF912B
:1025B000CF911F910F91FF90EF900895DC019C96B1
:1025C0002C919C971196ED91FC911297B3E02B9F63
:1025D000E00DF11D11248FEF8083818382830895A4
:1025E0000F931F93CF93DF93DB0140E050E020E097
:1025F00030E08C010C511F4FF801608170E026170C
:102600003707A4F4EC01E981FA81E40FF51F6C911E
:10261000608311966C911197618312966C91129759
:1026200062832F5F3F4F4D5F5F4FE6CFDF91CF91CA
:102630001F910F910895AF92BF92CF92DF92EF92C8
:10264000FF920F931F93CF93DF9300D01F92CDB7CC
:10265000DEB78C017C0183EEE80EF11CF70180816E
:10266000882331F067E373E08CE695E00E94860DE5
:1026700080E3F80183A714A615A616A617A619824B
:102680001A821B82BE016F5F7F4FC8010E94F01249
:10269000F801E452FF4F11821082F801E252FF4F1D
:1026A000108211828FEF8283F801EF51FF4F118268
:1026B0001082F7011082F801E351FF4F1082F801F8
:1026C000E251FF4F10827801F9EEEF0EF11CF70195
:1026D000608171815801F0E3AF0EB11CC5010E9409
:1026E000081ECC24CA94DC2CF701D182C082780168
:1026F000FBEEEF0EF11CF70160817181C5010E94B4
:10270000081EF701D182C082F801EB51FF4F118200
:102710001082F801E951FF4F1182108280E090E0B1
:10272000F801E80FF91F1482138202968431910593
:10273000B9F7F801178A108E0F900F900F90DF9164
:10274000CF911F910F91FF90EF90DF90CF90BF90AE
:10275000AF900895CF93DF93EC010E941B13CE013D
:102760004996DF91CF910C946311AF92BF92CF92B3
:10277000DF92EF92FF920F931F93CF93DF931F92FD
:10278000CDB7DEB75C017B016901499649830E94A0
:102790006111C501C0960E94511DF501EC51FF4F1A
:1027A00049814083D5011296FC92EE921197C501A2
:1027B0000E94AA1380E00E94111C0E94251DF501B1
:1027C000EF50FF4FD182C082F501E151FF4F1183DD
:1027D00000838CE4F50180830F90DF91CF911F91EE
:1027E0000F91FF90EF90DF90CF90BF90AF90089542
:1027F0008F929F92AF92BF92CF92DF92EF92FF9211
:102800000F931F93CF93DF9300D01F92CDB7DEB706
:102810007C016B014C018EEE880E911CD4018C91D1
:10282000882309F48AC0F701EC51FF4F808190E0C2
:10283000870104521F4FF80160817181D701AF51A8
:10284000BF4F5D01681779076CF0222341F00197B3
:102850009183808381E090E08D939C9303C0F80185
:1028600011821082D8018D919C911197181619062A
:102870005CF0222331F01D921C92F501118210822E
:1028800003C0D8011D921C92442301F1F6018081FE
:10289000898381818A8382818B83BE016F5F7F4FB1
:1028A000C7010E94F012D8012D913C91C901880FF7
:1028B000991F820F931FD7011196ED91FC911297EA
:1028C000E80FF91F10821182128222C019821A8227
:1028D0001B82BE016F5F7F4FC7010E94F012F8019B
:1028E00020813181C901880F991F820F931FD70161
:1028F0001196ED91FC911297E80FF91FD6018C917A
:10290000808311968C911197818312968C9182838A
:10291000F50180819181892B41F4D8018D919C91A1
:10292000119701968D939C9306C0F8018081918147
:10293000019791838083D4011C920F900F900F9088
:10294000DF91CF911F910F91FF90EF90DF90CF908B
:10295000BF90AF909F908F900895CF93DF9300D05A
:102960001F92CDB7DEB7462FFC01E452FF4FDC01CA
:10297000AC51BF4F2C9130E0A081B181FC01E252FB
:10298000FF4FA217B307C9F420812F3F51F42181D3
:10299000211125C02281211122C0108220E821832B
:1029A00021C021111CC021812038C9F422812111AC
:1029B00016C0108211822FEF22832081298321816A
:1029C0002A8322812B8320E0BE016F5F7F4F0E940C
:1029D000F8130F900F900F90DF91CF9108952FEF84
:1029E000208311821282E9CFCF93DF9300D01F9210
:1029F000CDB7DEB7FC0125A5298326A52A8327A507
:102A00002B83BE016F5F7F4F0E94F0120F900F90DB
:102A10000F90DF91CF910895AF92BF92CF92DF9246
:102A2000EF92FF920F931F93CF93DF937C016C0182
:102A30008EEEC80ED11CD6018C91882321F100E0C6
:102A400010E0C0E0D0E05701B4EEAB0EB11CF501D0
:102A5000808190E0C817D907A4F46FEF7FEF8FEF64
:102A600090E00E942D1DD7011196ED91FC911297D7
:102A7000E00FF11F80837183628321960D5F1F4FEA
:102A8000E6CFD6011C92DF91CF911F910F91FF905D
:102A9000EF90DF90CF90BF90AF900895AF92BF922C
:102AA000DF92EF92FF920F931F93CF93DF93FC017E
:102AB0008C0102511F4FD8018C918823C1F1808D68
:102AC00090E00196678970E00E94702640E050E037
:102AD00060E070E07F01B4EEEB0EF11C5C01AA0C2B
:102AE000BB1CAE0EBF1E23E0A20EB11CD7012C9161
:102AF00030E062177307C4F4D5012D913C91240F87
:102B0000351FC181D281C40FD51FD901DC90D88275
:102B10001196DC901197D98212962C912A836F5FBF
:102B20007F4F4D5F5F4FE2CF808FF8011082DF91C2
:102B3000CF911F910F91FF90EF90DF90BF90AF90DA
:102B40000895CF92DF92EF92FF920F931F93CF934E
:102B5000DF93EC0161E671E08CE695E00E94AB0D3D
:102B600068818CE695E00E94AD0D63E671E08CE62D
:102B700095E00E94AB0D61E671E08CE695E00E9465
:102B8000AB0D68818CE695E00E94AD0D62E871E0C6
:102B90008CE695E00E94AB0D6BA58CE695E00E945B
:102BA000AD0D61E671E08CE695E00E94AB0D6881A9
:102BB0008CE695E00E94AD0D6AE671E08CE695E04A
:102BC0000E94AB0DFE01EB51FF4F608171814AE025
:102BD00050E08CE695E00E94A10E61E671E08CE683
:102BE00095E00E94AB0D68818CE695E00E94AD0DEA
:102BF0006FE671E08CE695E00E94AB0DFE01E951B5
:102C0000FF4F608171814AE050E08CE695E00E94C0
:102C1000A10E61E671E08CE695E00E94AB0D688143
:102C20008CE695E00E94AD0D6CE671E08CE695E0D7
:102C30000E94AB0D8DA5811109C08EA541E08111C7
:102C400006C08FA5811103C040E001C041E050E003
:102C500060E070E02AE030E08CE695E00E94570EDC
:102C600061E671E08CE695E00E94AB0D68818CE630
:102C700095E00E94AD0D6EE671E08CE695E00E9455
:102C8000AB0D4AE050E06F898CE695E00E94CE0ED5
:102C900061E671E08CE695E00E94AB0D68818CE600
:102CA00095E00E94AD0D61E771E08CE695E00E9431
:102CB000AB0D7E0189E1E80EF11CC7010E94BA103C
:102CC0004AE050E0BC018CE695E00E94A10E61E66E
:102CD00071E08CE695E00E94AB0D68818CE695E092
:102CE0000E94AD0D63E771E08CE695E00E94AB0DAC
:102CF0006FA178A54AE050E08CE695E00E94A10E15
:102D000061E671E08CE695E00E94AB0D68818CE68F
:102D100095E00E94AD0D6AE871E08CE695E00E94B6
:102D2000AB0D69A57AA54AE050E08CE695E00E94DB
:102D3000A10E00E010E0B801C7010E9405116C016E
:102D40000097E9F061E671E08CE695E00E94AB0D3A
:102D500068818CE695E00E94AD0D6AE871E08CE632
:102D600095E00E94AB0D4AE050E0B8018CE695E09A
:102D70000E94A10EB6018CE695E00E94AB0D0F5F9C
:102D80001F4F07301105B9F662E671E08CE695E059
:102D9000DF91CF911F910F91FF90EF90DF90CF9037
:102DA0000C94DA0D8F929F92AF92BF92CF92DF92E6
:102DB000EF92FF920F931F93CF93DF93CDB7DEB7C0
:102DC00027970FB6F894DEBF0FBECDBF8C016B0105
:102DD0001E821D821C821B821A821982FB010190B5
:102DE0000020E9F7CF0101975C01A61AB70A780124
:102DF00093EEE90EF11CF7018081882359F068EF0A
:102E000072E08CE695E00E94860DB6018CE695E0B6
:102E10000E94DA0DF6019081F8018081981739F04F
:102E2000F7018081882399F068ED72E00CC04501BC
:102E30009924F2E08F16910464F4F70180818823CD
:102E400031F06AEB72E08CE695E00E94C80D11E06B
:102E500065C1F6018181813509F4C1C074F48434FF
:102E600009F4CEC01CF4833409F140C18D3409F457
:102E7000D2C0803509F49AC039C1843509F47EC0C6
:102E80003CF4833509F032C1C8010E94A115C1C0CC
:102E9000883541F0843609F029C160E0C8010E94FC
:102EA0009511B7C0C8010E941B13B3C0F701808100
:102EB000FAE08F16910434F4882309F42EC16FE9E7
:102EC00072E01AC1882331F06AE872E08CE695E07E
:102ED0000E94860DCE0105969F938F93B5E7AB2E8A
:102EE000B1E0BB2EBF92AF92C60102969F938F9323
:102EF0000E94F022CE0103969F938F93BF92AF92D0
:102F0000C60105969F938F930E94F022CE010196F1
:102F10009F938F93BF92AF92F8E0CF0ED11CDF92B8
:102F2000CF920E94F0224D815E81662757FD609509
:102F3000762FBA01552744278B819C81AA2797FDBC
:102F4000A095BA2FBA2FA92F982F8827482B592B35
:102F50006A2B7B2B89819A81AA2797FDA095BA2F8E
:102F6000482B592B6A2B7B2BC8010E9498120FB655
:102F7000F894DEBF0FBECDBF1AE0C4C096E089163C
:102F8000910444F4F7018081882309F4C6C06DE6FA
:102F900072E0B2C04AE050E060E070E0C601029624
:102FA0000E947E21C8010E94AC1117C0F6E08F1666
:102FB000910444F4F7018081882309F4AEC060E5F0
:102FC00072E09AC04AE050E060E070E0C60102960C
:102FD0000E947E21C8010E94151216E093C0B6011E
:102FE0006E5F7F4FC80149960E94D110F701808122
:102FF000882319F0C8010E94A11512E01A0D82C0A1
:1030000081E0F701808360E273E08CE695E00E9446
:10301000C80D12E077C0F6012281F801B3A4622F37
:10302000C8012F830E9472122F812035C1F18CF4C8
:103030002B3409F466C03CF4213409F462C0233413
:1030400009F044C05EC02E3409F45BC02F3489F00F
:103050003DC0233609F455C034F4243509F451C079
:103060002735A1F54EC02B3609F44BC0243771F536
:1030700048C0F5E08F1691043CF4F7018081882365
:1030800099F162E372E02CC04AE050E060E070E049
:10309000C60103960E947E21F80164A715C0F5E0E1
:1030A0008F1691043CF4F70180818823E9F064E1F4
:1030B00072E016C04AE050E060E070E0C60103969E
:1030C0000E947E21F801678B15E01CC06B2DC801A2
:1030D0000E947212F7018081882331F06DEE71E059
:1030E0008CE695E00E94C80D13E018C0F7018081BE
:1030F000882399F061ED71E08CE695E00E94C80D9F
:103100000CC013E0F7018081882341F06BEA71E085
:103110008CE695E00E94C80D01C012E0812F279631
:103120000FB6F894DEBF0FBECDBFDF91CF911F91D8
:103130000F91FF90EF90DF90CF90BF90AF909F9056
:103140008F900895CF92DF92EF92FF920F931F938B
:10315000CF93DF936C018B01EB0109900020E9F71D
:103160002197C61BD70BE12CF12CCE018E199F099C
:10317000181619063CF56AE370E0C8010E94DE22C9
:10318000892BA1F4F601ED51FF4F80818823D1F006
:1031900069E473E08CE695E0DF91CF911F910F9188
:1031A000FF90EF90DF90CF900C94C80D8FEFE81A4E
:1031B000F80AB8016E0D7F1DC6010E94D216E80EF6
:1031C000F11CD3CFDF91CF911F910F91FF90EF9022
:1031D000DF90CF900895EF92FF920F931F93CF93BC
:1031E000DF9300D01F92CDB7DEB78C01C0960E944E
:1031F000431EF80183A58033E9F47801F9E1EF0E6D
:10320000F11CC7010E94BA10181619069CF4F801A7
:10321000ED51FF4F8081882319F0C8010E94A1154C
:10322000C7010E942111BC01C8010E94A218C70158
:103230000E942611F80183A5803509F459C0D4F401
:103240008B34E1F174F4813419F1833409F054C002
:10325000F80185A5898386A58A8387A58B8320E0CD
:1032600035C08E3439F18F3409F046C0C8010E9450
:10327000DE1245C08336A9F02CF4843569F0873519
:10328000F1F13AC08B3621F18437B1F561E005C028
:10329000C8010E94F41433C060E0C8010E94AD145C
:1032A0002EC0F80185A5898386A58A8387A58B838F
:1032B00020E016C0C8010E940C1521C0F80185A5A8
:1032C000898386A58A8387A58B8321E040E009C096
:1032D000F80185A5898386A58A8387A58B8321E04C
:1032E00041E0BE016F5F7F4FC8010E94F81307C025
:1032F000C8010E944E1503C0C8010E941B130F9005
:103300000F900F90DF91CF911F910F91FF90EF9051
:103310000895FC01638F0C94E01FFC01238D23387A
:1033200010F02A5002C028E7FC01238FFC01638DB6
:103330000C948919FC01238D253F10F4265F02C0EF
:103340002FEFFC01238FFC01638D0C9489190E94DF
:10335000A21F64E670E080E090E00C94E00A0E9416
:10336000831F64E670E080E090E00C94E00A1F9315
:10337000CF93DF93EC011B8D64EB0E948919CE0182
:103380000E94A21F68EE73E080E090E00E94E00AD5
:10339000612FCE01DF91CF911F910C9489191F935A
:1033A000CF93DF93EC01162F8C8D8823B1F063EB64
:1033B00073E08CE695E00E94860D6A8D8CE695E0C0
:1033C0000E94AD0D6DEA73E08CE695E00E94860DDB
:1033D000612F8CE695E00E94EC0D1A8FDF91CF9162
:1033E0001F910895EF92FF920F931F93CF93DF9356
:1033F0008C0168E771E08CE695E00E94AB0D60E817
:1034000071E08CE695E00E94AB0DF801628D8CE6D0
:1034100095E00E94AD0D64E871E08CE695E00E94B5
:10342000AB0D4AE050E0F801638D8CE695E00E9418
:10343000CE0EC0E0D0E0085F1F4FBE01C8010E9461
:1034400005117C01009791F068E871E08CE695E049
:103450000E94AB0D4AE050E0BE018CE695E00E9470
:10346000A10EB7018CE695E00E94AB0D2196C73006
:10347000D10519F762E671E08CE695E0DF91CF9116
:103480001F910F91FF90EF900C94DA0DFC01648F67
:10349000662319F066E973E002C06EE773E08CE61C
:1034A00095E00C94C80DEF92FF920F931F93CF936A
:1034B000DF93EC018B01FB0101900020E9F7CF01C4
:1034C00001977C01E61AF70A8C8D882359F067E989
:1034D00074E08CE695E00E94860DB8018CE695E0DC
:1034E0000E94DA0DF8018081853409F0A7C0C70178
:1034F0009927823091053CF48C8D882309F4B7C05C
:1035000066E774E0A0C0F8012181213509F442C0CA
:10351000D4F4273409F45AC07CF4223409F45AC094
:10352000243409F081C081E08C8F66E973E08CE679
:1035300095E00E94C80D56C02C3409F43FC02D34CC
:1035400009F452C071C02535E9F14CF4223591F1EE
:10355000233509F069C0CE010E94F21943C0243618
:10356000E9F1233709F060C005973CF48C8D88237E
:1035700009F47BC06AE574E05CC04AE050E060E0BA
:1035800070E0C80102960E947E21CE010E94891936
:1035900015E05FC0B8016E5F7F4FCE0108960E94B4
:1035A000D1108C8D882319F0CE010E94F21912E0FF
:1035B0001E0D4FC0CE010E94AF1914C0CE010E9453
:1035C000A71910C0CE010E94B7190CC0CE010E94ED
:1035D0009A1908C0CE010E948D1904C060E0CE0186
:1035E0000E94461A12E035C0F80112810A8D612F3F
:1035F000CE010E94CF191C3459F12CF4123441F140
:10360000163431F103C01255123010F1602FCE0183
:103610000E94CF198C8D882331F16FE274E08CE623
:1036200095E00E94C80D1FC08C8D8823F1F06FE0DB
:1036300074E08CE695E00E94C80D17C08C8D88233D
:10364000B1F06FEE73E08CE695E00E94C80D0FC0FC
:1036500013E08C8D882361F069EC73E08CE695E0D3
:103660000E94C80D05C013E003C012E001C011E0C4
:10367000812FDF91CF911F910F91FF90EF900895CF
:10368000CF92DF92EF92FF920F931F93CF93DF932E
:103690006C018B01EB0109900020E9F72197C61B13
:1036A000D70BE12CF12CCE018E199F0918161906A3
:1036B0002CF56AE370E0C8010E94DE22892B91F4A8
:1036C000F601848D8823D1F067EA74E08CE695E0FA
:1036D000DF91CF911F910F91FF90EF90DF90CF90EE
:1036E0000C94C80DFFEFEF1AFF0AB8016E0D7F1D95
:1036F000C6010E94531AE80EF11CD5CFDF91CF917D
:103700001F910F91FF90EF90DF90CF9008950F934E
:103710001F93CF93DF93EC018A8D8033C9F48E0120
:10372000085F1F4FC8010E94BA101816190684F4CA
:103730008C8D882319F0CE010E94F219C8010E94D5
:103740002111BC01CE010E94401BC8010E9426111C
:103750008A8D8C34E1F05CF4823491F08634F1F49B
:10376000CE01DF91CF911F910F910C94641F823590
:10377000A9F4CE01DF91CF911F910F910C94831F7B
:10378000CE01DF91CF911F910F910C94451FCE0177
:10379000DF91CF911F910F910C94A21FCE01DF9169
:1037A000CF911F910F910C94C11FCF93DF93EC0128
:1037B0008C8D882331F06CE673E08CE695E00E94F6
:1037C000860D80E38A8F88EC8B8F1C8EDF91CF91E2
:1037D0000895CF93DF93EC010E94D51BCE0108968C
:1037E000DF91CF910C946311CF92EF920F93CF930F
:1037F000DF93EC0184E0C82E9DE0E92E05E02CE08B
:103800004BE066E0CE010E94181FCE0108960E9490
:103810006111CE01DF91CF910F91EF90CF900C9479
:10382000E91B8E3008F08E50877020910A0190E4D9
:10383000299F90011124822B80937C0080917A0033
:10384000806480937A0080917A0086FDFCCF80911D
:1038500078002091790090E0922B08951F93CF93E8
:10386000DF93182FEB0161E00E94B61C209711F442
:1038700060E004C0CF3FD10539F461E0812FDF91D2
:10388000CF911F910C94EF1CE12FF0E0E653FB4F1A
:10389000E491E330F9F048F4E130B9F0E230A1F519
:1038A00084B5806284BDC8BD34C0E630E9F0E7303D
:1038B00019F1E43049F580918000806280938000A6
:1038C000D0938B00C0938A0024C084B5806884BDE7
:1038D000C7BD1FC080918000806880938000D09316
:1038E0008900C093880015C08091B00080688093E3
:1038F000B000C093B3000DC08091B000806280938F
:10390000B000C093B40005C0C038D1050CF0B5CFED
:10391000AFCFDF91CF911F910895833081F028F4CC
:10392000813099F08230A1F008958630A9F0873077
:10393000B9F08430D1F4809180008F7D03C08091F4
:1039400080008F7780938000089584B58F7702C0C0
:1039500084B58F7D84BD08958091B0008F7703C0BA
:103960008091B0008F7D8093B0000895CF93DF9356
:1039700090E0FC01E252FB4F2491FC01EE50FB4F22
:103980008491882349F190E0880F991FFC01E05F42
:10399000FA4FA591B4918A5F9A4FFC01C591D491D9
:1039A0009FB7611108C0F8948C91209582238C9365
:1039B000888182230AC0623051F4F8948C91322FAE
:1039C000309583238C938881822B888304C0F8945C
:1039D0008C91822B8C939FBFDF91CF9108950F9391
:1039E0001F93CF93DF931F92CDB7DEB7282F30E020
:1039F000F901E653FB4F8491F901E252FB4F149118
:103A0000F901EE50FB4F04910023C9F0882321F007
:103A100069830E948D1C6981E02FF0E0EE0FFF1F8B
:103A2000EA5FFA4FA591B4919FB7F8948C91611118
:103A300003C01095812301C0812B8C939FBF0F90F1
:103A4000DF91CF911F910F910895009729F0BC014C
:103A500080E090E00C9475210895CF93DF9300D01F
:103A600000D0CDB7DEB79B01AC01611571058105B2
:103A7000910569F069833A834B835C830E947021CE
:103A800029813A814B815C810E94A62603C060E0B7
:103A900070E0CB010F900F900F900F90DF91CF91BE
:103AA00008950F931F93CF93DF93EC010E94B10A07
:103AB000FE018E0120E030E0AE01420F531F44575B
:103AC0005F4FDA011C9211A610A6D8016D937D9369
:103AD0008D939D938D01AF0148585F4FDA011D9280
:103AE0001C922F5F3F4F32962A30310529F7C65579
:103AF000DF4F19821882DF91CF911F910F910895A6
:103B0000FC01E655FF4F208131812A30310584F4D4
:103B1000FC0120E030E080A591A5892B39F02F5FD2
:103B20003F4F32962A303105B1F702C0C9010895DE
:103B30008FEF9FEF08958F929F92AF92BF92CF9297
:103B4000DF92EF92FF920F931F93CF93DF9300D0FA
:103B500000D0CDB7DEB77C01590149835A836B830E
:103B60007C830E94801D4C0149815A816B817C813C
:103B700097FD32C0A114B10479F16C01CC0CDD1CAD
:103B8000CC0CDD1CCE0CDF1CF60144AF55AF66AF8C
:103B900077AFF401EE0FFF1FEE0DFF1DB1A6A0A63B
:103BA000EC59FF4F11830083F701E80DF91DE4572D
:103BB000FF4F81E080830E94B10AF6016083718328
:103BC00082839383F701E655FF4F808191810196AF
:103BD00091838083C40102C08FEF9FEF0F900F90FD
:103BE0000F900F90DF91CF911F910F91FF90EF9069
:103BF000DF90CF90BF90AF909F908F9008950F93DC
:103C00001F9300E010E00E949B1D1F910F910895EB
:103C1000CF93DF936A3071059CF5EC01C655DF4FF9
:103C2000288139812115310559F1FB01EE0FFF1F64
:103C3000E80FF91F40A551A5452B11F111A610A6BB
:103C4000DC01A60FB71FA457BF4F1C92DF01AA5675
:103C5000BF4F1D921C92DB011F96AA0FBB1FAA0F1C
:103C6000BB1FA80FB91F1D921D921D921C92139786
:103C7000E858FF4F1182108221503109398328837F
:103C8000DF91CF9108952F923F924F925F926F9262
:103C90007F928F929F92AF92BF92CF92DF92EF92DC
:103CA000FF920F931F93CF93DF9300D000D000D0EB
:103CB000CDB7DEB79E838D830E94B10A2D813E81F0
:103CC0003C832B83F9011A82198222242394312CFC
:103CD0009F012A563F4FD9011D921C9240A551A524
:103CE000452B09F454C0AB81BC818D909D90AD9063
:103CF000BC901397DC96CD90DD90ED90FC90DF9713
:103D00002B013C01481859086A087B084C145D04D3
:103D10006E047F04E0F1C80CD91CEA1CFB1CCD9298
:103D2000DD92ED92FC92139749815A81AD81BE815B
:103D30004A0F5B1F44575F4FDA014C91442339F11E
:103D4000AF014C595F4FDA014D915C91411551051E
:103D500021F4D9012D923C921AC07F01B8E7EB0EF5
:103D6000F11CD7010D911C910417150784F4D9019A
:103D70002D923C920F5F1F4FD7010D931C93041798
:103D800015072CF042E050E0D9014D935C93A981D6
:103D9000BA811196BA83A98332962B813C812C5F1C
:103DA0003F4F3C832B831A9709F092CF0D811E81E0
:103DB000E12CF12CF801EA56FF4F8081918181308E
:103DC000910571F0029791F4D8019896ED91FC91CC
:103DD00099970995B7018D819E810E94081E06C0A2
:103DE000D8019896ED91FC9199970995BFEFEB1A40
:103DF000FB0A0E5F1F4F2AE0E216F104D9F6269661
:103E00000FB6F894DEBF0FBECDBFDF91CF911F91EB
:103E10000F91FF90EF90DF90CF90BF90AF909F9069
:103E20008F907F906F905F904F903F902F9008956C
:103E3000CF92EF920F93CF93DF93EC01862F68839D
:103E400049832A830B83EC82CD8298EC9E8396E98A
:103E50009F8361E00E94B61C61E08B810E94B61CCA
:103E600061E089810E94B61C61E08A810E94B61CD3
:103E700061E08C810E94B61C61E08D81DF91CF9161
:103E80000F91EF90CF900C94B61CCF93DF93EC0181
:103E900060E089810E94EF1C61E08A810E94EF1C32
:103EA0006E8170E088810E942E1C60E08C810E94EF
:103EB000EF1C61E08D810E94EF1C6E8170E08B81B0
:103EC000DF91CF910C942E1CCF93DF93EC0161E036
:103ED00089810E94EF1C60E08A810E94EF1C6E8144
:103EE00070E088810E942E1C61E08C810E94EF1C92
:103EF00060E08D810E94EF1C6E8170E08B81DF910C
:103F0000CF910C942E1CCF93DF93EC0160E089815C
:103F10000E94EF1C61E08A810E94EF1C6F8170E0BB
:103F200088810E942E1C61E08C810E94EF1C60E061
:103F30008D810E94EF1C6F8170E08B81DF91CF91AA
:103F40000C942E1CCF93DF93EC0161E089810E94D9
:103F5000EF1C60E08A810E94EF1C6F8170E0888115
:103F60000E942E1C60E08C810E94EF1C61E08D811C
:103F70000E94EF1C6F8170E08B81DF91CF910C94D8
:103F80002E1CCF93DF93EC0160E089810E94EF1C2F
:103F900060E08A810E94EF1C60E070E088810E94EE
:103FA0002E1C60E08C810E94EF1C60E08D810E94DD
:103FB000EF1C60E070E08B81DF91CF910C942E1CA0
:103FC000FF920F931F93CF93DF93EC01F62E062FF2
:103FD00010E0B80188810E942E1CB8018B810E94DC
:103FE0002E1CFE82FF828F2DDF91CF911F910F91AA
:103FF000FF900895CF93DF938230910510F482E013
:1040000090E0E0914506F091460620E030E0A0E027
:10401000B0E0309739F14081518148175907B8F025
:104020004817590771F482819381109729F01396EC
:104030009C938E9312972CC09093460680934506CE
:1040400027C02115310531F04217530718F0A90197
:10405000DB0101C0EF019A01BD01DF010280F381A4
:10406000E02DD7CF21153105F9F0281B390B24306D
:10407000310580F48A819B816115710521F0FB0176
:104080009383828304C09093460680934506FE0185
:10409000329644C0FE01E20FF31F819391932250A8
:1040A0003109398328833AC0209143063091440670
:1040B000232B41F4209102013091030130934406F7
:1040C0002093430620910001309101012115310513
:1040D00041F42DB73EB74091040150910501241BD6
:1040E000350BE0914306F0914406E217F307A0F484
:1040F0002E1B3F0B2817390778F0AC014E5F5F4F3E
:104100002417350748F04E0F5F1F50934406409325
:1041100043068193919302C0E0E0F0E0CF01DF918C
:10412000CF910895CF93DF93009709F487C0FC01E6
:10413000329713821282C0914506D091460620978D
:1041400081F420813181280F391F8091430690919D
:1041500044068217930779F5F0934406E0934306EB
:104160006DC0DE0120E030E0AE17BF0750F41296BC
:104170004D915C9113979D014115510509F1DA01AB
:10418000F3CFB383A28340815181840F951F8A1797
:104190009B0771F48D919C911197840F951F029646
:1041A0009183808312968D919C9113979383828340
:1041B0002115310529F4F0934606E09345063EC0EB
:1041C000D9011396FC93EE9312974D915D91A40F34
:1041D000B51FEA17FB0779F480819181840F951F41
:1041E0000296D90111969C938E93828193811396A6
:1041F0009C938E931297E0E0F0E08A819B81009778
:1042000019F0FE01EC01F9CFCE0102962881398127
:10421000820F931F209143063091440628173907D7
:1042200069F4309729F4109246061092450602C0B0
:1042300013821282D0934406C0934306DF91CF913C
:1042400008958F929F92AF92BF92CF92DF92EF929A
:10425000FF92CF93DF93EC01688179818A819B8102
:10426000611571058105910521F464E279ED8BE515
:1042700097E02DE133EF41E050E00E94A62649018E
:104280005A019B01AC01A7EAB1E40E9439266B01F7
:104290007C01ACEEB4EFA50194010E944726C60E46
:1042A000D71EE81EF91EF7FE06C081E0C81AD10825
:1042B000E10880E8F80AC882D982EA82FB82C70155
:1042C000B6019F77DF91CF91FF90EF90DF90CF9075
:1042D000BF90AF909F908F9008950E9421210895E4
:1042E00086E091E00E942121089560930601709379
:1042F0000701809308019093090108952F923F923E
:104300005F926F927F928F929F92AF92BF92CF9265
:10431000DF92EF92FF920F931F93CF93DF938B0166
:10432000EA016115710521F0DB018C9311969C93D4
:10433000209739F09E01225031092332310508F0CF
:10434000FBC07C016701BFEFCB1ADB0A5601F70106
:104350006080862D90E00E94B522892B11F07601B5
:10436000F1CFFDE26F120AC0570182E0A80EB11C26
:10437000D70111966C90772473940BC0BBE26B123B
:1043800007C05701E2E0AE0EB11CD70111966C9048
:10439000712CCE018F7E892B89F4B0E36B1222C081
:1043A000F50180818F7D883541F56180F2E0AF0EA7
:1043B000B11C872D8260782EC0E1D0E0C830D105D5
:1043C000F1F04CF4C230D10511F5C12CD12CE12C07
:1043D000B0E4FB2E2FC0CA30D10531F0C031D10579
:1043E00021F115C0209751F7CAE0D0E0ACECCA2EFD
:1043F000DC2CEC2CACE0FA2E1DC02097F9F6C8E0BE
:10440000D0E0C12CD12CE12CF0E1FF2E13C060E0F4
:1044100070E080E090E89E01442737FD4095542FDE
:104420000E94842669017A0105C0C12CD12CE12C9F
:10443000E8E0FE2EF50160E020E030E0A9014E0149
:10444000AA2497FCA094BA2C1F0170ED572E560C8D
:10445000A9E0A51570F48FEB860D8A3118F499EC5C
:10446000592E06C08FE9860D8A3130F589EA582E1B
:10447000560C852D90E08C179D07F4F467FD18C04D
:10448000C216D306E406F50680F0C501B4010E9409
:104490004C269B01AC01250D311D411D511D2130C4
:1044A00031054105B0E85B0710F06FEF01C061E036
:1044B0003196D1016C90C8CF872D817001151105FF
:1044C00071F0662329F03197D801ED93FC9307C072
:1044D00071FE19C03297D801ED93FC9314C067FFA9
:1044E00012C0882329F020E030E040E050E804C00A
:1044F0002FEF3FEF4FEF5FE782E290E090934806A7
:104500008093470616C0882341F05095409530951A
:1045100021953F4F4F4F5F4F0CC057FF0AC082E2BB
:1045200090E090934806809347062FEF3FEF4FEFC0
:104530005FE7B901CA0104C060E070E080E090E08C
:10454000DF91CF911F910F91FF90EF90DF90CF906F
:10455000BF90AF909F908F907F906F905F903F90B3
:104560002F900895F8940C940227911107C380327C
:1045700019F089508550D0F70895FB01DC010590B2
:104580000D920020E1F708950F931F93CF93DF93CF
:104590008C01FC0101900020E9F7CF01801B910BF9
:1045A0000E94FA1FEC01009719F0B8010E94E9225D
:1045B000CE01DF91CF911F910F910895FC01819160
:1045C000861721F08823D9F7992708953197CF01CD
:1045D0000895FB01DC0101900D920020E1F70895A0
:1045E000AEE0B0E0E6EFF2E20C94D52685E08C83F5
:1045F0008B899C899A838983AE01495E5F4F6D895F
:104600007E89CE0101960E9487242E96E2E00C94CA
:10461000F12620FD09C0FC0123FD05C022FF02C0D8
:104620007383628351834083089544FD10C046FD27
:1046300010C0DB01FC01AA0FBB1FEE1FFF1F10946F
:10464000D1F76A0F7B1F8E1F9F1F31E003C033E03D
:1046500001C034E0660F771F881F991F3150D1F7D2
:10466000620F711D811D911D08950F931F93CF93AC
:10467000DF938C01C8010E94CC25EC0197FD08C096
:104680000E94B522892BB1F7B801CE010E940A26FB
:10469000CE01DF91CF911F910F9108958F929F923C
:1046A000AF92CF92DF92EF92FF920F931F93CF932F
:1046B000DF93EC01A62E4A01022F0E94CC25AC010B
:1046C00055274B32510521F04D32510551F4006808
:1046D000AA9411F480E067C0CE010E94CC2597FD1A
:1046E000F9CF102F1D7F302F307301F58033F1F497
:1046F000FF24FA94FA0C09F442C0CE010E94CC25A2
:1047000097FD3DC0382F3F7D383551F41264AA948F
:10471000AA94A9F1CE010E94CC2597FF07C02FC013
:1047200006FF02C0126001C01261AF2CC12CD12C57
:10473000760120ED280F283080F014FF04C0BE0160
:104740000E940A2619C02A3040F016FFF8CF2F7DAC
:104750003FEE320F363098F72750412FC701B60190
:104760000E9415236B017C011260AA9459F0CE01BE
:104770000E94CC2597FFDDCF11FD04C0ABCFC12C2B
:10478000D12C760117FF08C0F094E094D094C09427
:10479000C11CD11CE11CF11C212FB701A601C401D1
:1047A0000E94092381E0DF91CF911F910F91FF902B
:1047B000EF90DF90CF90AF909F908F900895A1E2FF
:1047C000B0E0E5EEF3E20C94CA265C017A018E01BA
:1047D0000F5F1F4F680180E2D8011D928A95E9F7AB
:1047E000F501738040E050E0812CB0E0912C81E035
:1047F00090E0F90173FCA59173FEA1918F017A2FCE
:104800009F01A11103C080E090E07DC0AE3519F496
:104810004115510559F1E92DF0E0E417F5073CF495
:10482000AD3569F1AD3219F4BB2319F103C0B111F3
:1048300001C08A2EE72FE695E695E69586010E0FD4
:10484000111DF801A72FA7708C0102C0000F111FC6
:10485000AA95E2F7D801B081BA2BB083781559F048
:10486000781510F47F5FE6CF7150E4CF99249394CC
:1048700003C0B1E001C0B0E04F5F5F4FBACFBB23D0
:1048800019F08E8180628E83911003C099249394D5
:1048900015C0F601CE018196208120952193E8175D
:1048A000F907D1F7F3CFE114F10429F0D7018C9384
:1048B000F70131967F01615001F1912CC50169A387
:1048C0000E94CC2569A197FD16C0282F2695269514
:1048D0002695F601E20FF11D208130E0AC01477012
:1048E000552702C0359527954A95E2F720FDDBCF85
:1048F000B5010E940A26911086CFE114F10411F04F
:10490000D7011C92C801A196EDE00C94E6264F92C7
:104910005F927F928F929F92AF92BF92CF92DF92DF
:10492000EF92FF920F931F93CF93DF931F92CDB718
:10493000DEB78C012B017A01FC0117821682A12CB3
:10494000F801D380F201D3FC8591D3FE8191382FF9
:104950002F01882309F4FCC090E039830E94B5221E
:104960003981892B21F0C8010E943523E9CF3532E6
:1049700041F4F201D3FC3591D3FE31912F01353250
:1049800069F4C80139830E94CC25398197FDDEC0C6
:104990003817B1F2B8010E940A26DAC03A3241F45F
:1049A000D3FC3591D3FE31912F01BB24B39401C0C8
:1049B000B12C712C20ED230F2A3090F4FB2DF260E6
:1049C000BF2E672D70E080E090E040E20E9415234A
:1049D000762EF201D3FC3591D3FE31912F01EACF2F
:1049E000B1FE03C0711003C0B3C077247A94383687
:1049F00019F03C3661F014C0F201D3FC3591D3FEBE
:104A000031912F01383661F4FB2DF860BF2E8B2DCC
:104A10008460B82EF201D3FC3591D3FE31912F0181
:104A2000332309F495C0632F70E08AE195E0398360
:104A30000E94C1253981892B09F48AC0B0FC07C0C6
:104A4000F701C080D180C70102967C0102C0C12C51
:104A5000D12C3E3651F4F8014681578160E070E078
:104A60002B2DC6010E9409236BCF3336A1F4B1FC74
:104A700002C077247394C8010E94CC2597FD66C0BC
:104A8000C114D10429F0F6018083C60101966C019E
:104A90007A9489F757C03B3559F49201A601672DE6
:104AA000C8010E94DF232C01009709F04BC045C0CC
:104AB000C80139830E943523398197FD47C03F36AD
:104AC00069F128F4343631F1393679F12BC03337B6
:104AD00069F03537F9F026C0C114D10429F0F60188
:104AE0008082C60101966C017A9471F0C8010E941F
:104AF000CC254C0197FD08C00E94B522892B61F39B
:104B0000B801C4010E940A26C114D104D9F0F601EB
:104B1000108218C0FB2DF062BF2E07C08B2D806164
:104B2000B82E03C09B2D9064B92E2B2DA601672DA6
:104B3000C8010E944E23811105C0F8018381807352
:104B400029F406C0B0FCFCCEA394FACEAA2019F03A
:104B50008A2D90E002C08FEF9FEF0F90DF91CF91F1
:104B60001F910F91FF90EF90DF90CF90BF90AF908B
:104B70009F908F907F905F904F90089599278827FE
:104B80000895FC010590061621F00020D9F7C00118
:104B900008953197CF010895CF93DF93EC012B81D6
:104BA00020FF33C026FF0AC02F7B2B838E819F817D
:104BB00001969F838E838A8190E029C022FF0FC0D7
:104BC000E881F9818081992787FD9095009719F4F4
:104BD00020622B831AC03196F983E8830EC0EA85E0
:104BE000FB85099597FF09C02B81019611F480E19F
:104BF00001C080E2822B8B8308C02E813F812F5F12
:104C00003F4F3F832E83992702C08FEF9FEFDF91A5
:104C1000CF910895FB01238120FF12C026FD10C013
:104C20008F3F3FEF930761F082832F7D20642383C2
:104C300026813781215031093783268399270895AA
:104C40008FEF9FEF0895A29FB001B39FC001A39F74
:104C5000700D811D1124911DB29F700D811D1124B5
:104C6000911D08950E942326B7FF0895821B930B80
:104C700008950E942326A59F900DB49F900DA49F98
:104C8000800D911D11240895B7FF0C9439260E94C0
:104C90003926821B930B0895DB018F939F930E940B
:104CA0003926BF91AF91A29F800D911DA39F900DBA
:104CB000B29F900D11240895AA1BBB1B51E107C0A0
:104CC000AA1FBB1FA617B70710F0A61BB70B881F9C
:104CD000991F5A95A9F780959095BC01CD0108952B
:104CE00097FB072E16F4009407D077FD09D00E9499
:104CF0005C2607FC05D03EF4909581959F4F089562
:104D0000709561957F4F0895A1E21A2EAA1BBB1BD7
:104D1000FD010DC0AA1FBB1FEE1FFF1FA217B30787
:104D2000E407F50720F0A21BB30BE40BF50B661F9D
:104D3000771F881F991F1A9469F760957095809561
:104D400090959B01AC01BD01CF010895052E97FB05
:104D50001EF400940E94BD2657FD07D00E948426B1
:104D600007FC03D04EF40C94BD2650954095309529
:104D700021953F4F4F4F5F4F0895909580957095C7
:104D800061957F4F8F4F9F4F08952F923F924F9283
:104D90005F926F927F928F929F92AF92BF92CF92CB
:104DA000DF92EF92FF920F931F93CF93DF93CDB7D4
:104DB000DEB7CA1BDB0B0FB6F894DEBF0FBECDBF4C
:104DC00009942A88398848885F846E847D848C841D
:104DD0009B84AA84B984C884DF80EE80FD800C8126
:104DE0001B81AA81B981CE0FD11D0FB6F894DEBF09
:104DF0000FBECDBFED010895EE0FFF1F0590F4919A
:084E0000E02D0994F894FFCFA6
:104E080000004906200001000000010000000047E2
:104E18000D470D470D2503210349030000000081BC
:104E280009CC09470D250321034903470D0000005C
:104E3800008109CC095403250321034F03C108004D
:104E48000000008109CC095203250321034C036D9E
:104E580006000000009B0B480D410B6E0B530B9096
:104E68000B3A0053444542554700540043004D5007
:104E780000710068002558003A45444542554700EE
:0C4E88003A454D003A4553003A4574008D
:00000001FF
