:100000000C948B020C94B3020C94B3020C94B302C4
:100010000C94B3020C94B3020C94B3020C94B3028C
:100020000C94B3020C94B3020C94B3020C94B3027C
:100030000C94B3020C94B3020C94B3020C94B3026C
:100040000C94D1160C94B3020C94E8050C942B0676
:100050000C94B3020C94B3020C94B3020C94B3024C
:100060000C94B3020C94B3025354415445205745A9
:100070004C434F4D45202D3E2049444C45005354A0
:1000800041544520494E4954202D3E2057454C436C
:100090004F4D450044454255473A20696E7075748E
:1000A000426F6F74537472696E672E2E2E00535414
:1000B00041544520494E49540053657475702E2EA5
:1000C0002E202763616D65206F6E2C206265206D88
:1000D0007920626162792C2063616D65206F6E27E3
:1000E000003A4C50303032303A4C54303030353A9F
:1000F0004C4D4B3A4C4346462C30302C30303A4C29
:10010000513A4C4D6B3A4C513A4C4D4E0000000068
:1001100007000201000003040600000000000000C8
:100120000001020408102040800102040810200190
:10013000020408102004040404040404040202025B
:10014000020202030303030303000000002500284A
:10015000002B0000000000240027002A0020746FFC
:100160003A200044454255473A20736574436F6C0A
:100170006F722066726F6D3A200020746F3A200013
:1001800044454255473A207365744D6F6465206657
:10019000726F6D3A2000206D732E2054696D657268
:1001A000206E756D6265723A200044454255473AAB
:1001B00020736574506175736520746F2000206D25
:1001C000732E2054696D6572206E756D6265723A8A
:1001D000200044454255473A2073657454696D6563
:1001E0006F757420746F200044454255473A204390
:1001F0006F6D6D616E642070726F6365737365649B
:10020000207375636365737366756C6C7900444520
:100210004255473A2050524F544F434F4C20756E31
:100220006578706563746564207479706500444511
:100230004255473A4C5320756E6578706563746516
:100240006420737562747970650044454255473A7D
:10025000204C5320756E6578706563746564206DFD
:100260006F64652C2069676E6F72696E67206974B0
:100270000044454255473A20696E636F6D706C6566
:100280007465206C735F6D6F64655F6F6E650044AD
:10029000454255473A20696E636F6D706C657465B1
:1002A000206C735F74696D656F75740044454255C9
:1002B000473A20696E636F6D706C657465206C736E
:1002C0005F74696D656F75740044454255473A2007
:1002D0006E6577204C5320636F6C6F723A00444513
:1002E0004255473A20696E636F6D706C6574652086
:1002F0006C735F636F6C6F720044454255473A20E0
:10030000696E636F6D706C657465206C65642063E5
:100310006F6D6D616E640044454255473A205061EF
:100320007273696E673A0044454255473A20446506
:100330006275672069732064697361626C6500444B
:10034000454255473A2044656275672069732065C8
:100350006E61626C650044454255473A4C53454DC9
:100360003A3A72657365740044454255473A206EC7
:100370006F206D6F726520636F6D616E64732069AD
:100380006E20746865206C696E650044454255476F
:100390003A2063616C6C6261636B54696D656F7563
:1003A000740044454255473A4C53454D3A3A7265BC
:1003B0007365740044454255473A20446562756749
:1003C0002069732064697361626C6500444542551D
:1003D000473A20446562756720697320656E6162E3
:1003E0006C650020746F3A200044454255473A201E
:1003F0007365744D6F64652066726F6D3A200044BA
:10040000454255473A20436F6D6D616E64207072AE
:100410006F63657373656420737563636573736677
:10042000756C6C790044454255473A2050524F5400
:100430004F434F4C20756E6578706563746564201A
:10044000747970650044454255473A456E67696E58
:100450006520756E65787065637465642073756278
:10046000747970650044454255473A20456E676986
:100470006E6520756E6578706563746564206D6F58
:1004800064652C2069676E6F72696E6720697400FD
:1004900044454255473A20696E636F6D706C6574D0
:1004A0006520455F74696D656F75740044454255FC
:1004B000473A20696E636F6D706C65746520656E78
:1004C00067696E6520636F6D6D616E6400444542BF
:1004D00055473A2050617273696E673A004445424D
:1004E00055473A206E6F206D6F726520636F6D61A6
:1004F0006E647320696E20746865206C696E650097
:100500006364696E6F70737578585B001004E7065A
:10051000C40955145F1A11241FBECFEFD8E0DEBF07
:10052000CDBF11E0A0E0B1E0E4EAF6E402C005903E
:100530000D92AA36B107D9F714E0AAE6B1E001C0DE
:100540001D92A43BB107E1F715E0C6E1D5E004C078
:100550002297FE010E944C23CC30D107C9F70E949C
:100560003D070C94001F0C940000CF92EF920F9364
:10057000CF93DF93EC01862F688349832A830B8313
:10058000EC82CD8298EC9E8396E99F8361E00E9485
:10059000E20461E08B810E94E20461E089810E94B3
:1005A000E20461E08A810E94E20461E08C810E94A1
:1005B000E20461E08D81DF91CF910F91EF90CF90B8
:1005C0000C94E204CF93DF93EC0160E089810E94F8
:1005D0001B0561E08A810E941B056E8170E08881A5
:1005E0000E945A0460E08C810E941B0561E08D81AD
:1005F0000E941B056E8170E08B81DF91CF910C947E
:100600005A04CF93DF93EC0161E089810E941B05BE
:1006100060E08A810E941B056E8170E088810E94E3
:100620005A0461E08C810E941B0560E08D810E946C
:100630001B056E8170E08B81DF91CF910C945A0481
:10064000CF93DF93EC0160E089810E941B0561E09C
:100650008A810E941B056F8170E088810E945A0484
:1006600061E08C810E941B0560E08D810E941B056A
:100670006F8170E08B81DF91CF910C945A04CF93FE
:10068000DF93EC0161E089810E941B0560E08A81B3
:100690000E941B056F8170E088810E945A0460E00F
:1006A0008C810E941B0561E08D810E941B056F817A
:1006B00070E08B81DF91CF910C945A04CF93DF933C
:1006C000EC0160E089810E941B0560E08A810E9444
:1006D0001B0560E070E088810E945A0460E08C8114
:1006E0000E941B0560E08D810E941B0560E070E0A8
:1006F0008B81DF91CF910C945A04FF920F931F933B
:10070000CF93DF93EC01F62E062F10E0B80188811D
:100710000E945A04B8018B810E945A04FE828F2DD8
:10072000DF91CF911F910F91FF90089564E970E0E0
:1007300084E592E00E94D70761EE70E08FE691E0D9
:100740000E940B1F6FE671E08AE293E00E941E1088
:1007500084EB93E090936B0180936A016EE770E005
:1007600084E592E00C94D7078091C603803391F41E
:1007700084EB93E00E94FC08892B61F48DEF93E0F9
:1007800090936B0180936A0168E670E084E592E0E3
:100790000C94D707089540E855E260E070E084E5E6
:1007A00092E00E94660669EB70E084E592E00E94A8
:1007B000D7071092D30186E993E090936B01809361
:1007C0006A016EEA70E084E592E00C94D70763ED6D
:1007D00071E08FE691E00E94371F1092D3011092D2
:1007E0006C016FE671E08AE293E00E941E106FE6F2
:1007F00071E087E392E00C94001680916C01811106
:100800000C94E7030895E0916A01F0916B0109955A
:100810008AE293E00E94671087E392E00C94471607
:1008200087E392E00C94B41684E592E00E945105AF
:10083000892B11F184E592E00E947E0520916D01E3
:1008400030916E01803264F481E080936C01F90193
:10085000ED52FE4F108210926E0110926D010895BC
:10086000A9014F5F5F4F50936E0140936D01F901F5
:10087000ED52FE4F8083D8CF08958E3008F08E5011
:10088000877020910A0190E4299F90011124822B06
:1008900080937C0080917A00806480937A008091BC
:1008A0007A0086FDFCCF809178002091790090E05D
:1008B000922B08951F93CF93DF93182FEB0161E0E4
:1008C0000E94E204209711F460E004C0CF3FD105FC
:1008D00039F461E0812FDF91CF911F910C941B05BA
:1008E000E12FF0E0E35FFE4FE491E330F9F048F4EC
:1008F000E130B9F0E230A1F584B5806284BDC8BDB5
:1009000034C0E630E9F0E73019F1E43049F5809180
:100910008000806280938000D0938B00C0938A0017
:1009200024C084B5806884BDC7BD1FC0809180008D
:10093000806880938000D0938900C093880015C0A0
:100940008091B00080688093B000C093B3000DC068
:100950008091B00080628093B000C093B40005C065
:10096000C038D1050CF0B5CFAFCFDF91CF911F913B
:100970000895833081F028F4813099F08230A1F01D
:1009800008958630A9F08730B9F08430D1F4809191
:1009900080008F7D03C0809180008F7780938000DE
:1009A000089584B58F7702C084B58F7D84BD089586
:1009B0008091B0008F7703C08091B0008F7D8093CD
:1009C000B0000895CF93DF9390E0FC01EF5DFE4F00
:1009D0002491FC01EB5CFE4F8491882349F190E067
:1009E000880F991FFC01ED5AFE4FA591B491875BCA
:1009F0009E4FFC01C591D4919FB7611108C0F89436
:100A00008C91209582238C93888182230AC0623046
:100A100051F4F8948C91322F309583238C938881F4
:100A2000822B888304C0F8948C91822B8C939FBF77
:100A3000DF91CF9108950F931F93CF93DF931F9270
:100A4000CDB7DEB7282F30E0F901E35FFE4F849188
:100A5000F901EF5DFE4F1491F901EB5CFE4F04913B
:100A60000023C9F0882321F069830E94B9046981B9
:100A7000E02FF0E0EE0FFF1FE75BFE4FA591B49172
:100A80009FB7F8948C91611103C01095812301C028
:100A9000812B8C939FBF0F90DF91CF911F910F916E
:100AA0000895FC0124853585F901E05CFF4F8081C4
:100AB0009181F901EE5BFF4F20813181821B930B05
:100AC0008F7399270895FC0184859585FC01E05C6E
:100AD000FF4F40815181FC01EE5BFF4F208131814E
:100AE0004217530741F00190F081E02DE80FF91F04
:100AF000808190E008958FEF9FEF0895FC01848539
:100B00009585FC01E05CFF4F40815181FC01EE5B6B
:100B1000FF4F208131814217530779F0A081B181C5
:100B2000A80FB91F8C91208131812F5F3F4F2F7308
:100B300033273183208390E008958FEF9FEF08954E
:100B4000FC0181A1882329F0A489B5898C9186FFB5
:100B5000FBCF11A20895CF93DF93FC012685378543
:100B6000D901A05CBF4F8D919C91119701968F7315
:100B70009927E901CE5BDF4F48815981841795079A
:100B8000D9F30D90BC91A02DA20FB31F6C93A68535
:100B9000B785A05CBF4F11969C938E93A689B789A9
:100BA0002C9181E090E0078C02C0880F991F0A9475
:100BB000E2F7282B2C9381E081A30488F589E02DAE
:100BC00080818064808381E090E0DF91CF910895FF
:100BD0001F920F920FB60F9211242F933F934F93B2
:100BE0008F939F93EF93FF938091C00082FD1CC071
:100BF0004091C6008091FA029091FB0201968F739A
:100C000099272091FC023091FD028217930771F021
:100C1000E091FA02F091FB02E654FD4F408390937D
:100C2000FB028093FA0202C08091C600FF91EF910F
:100C30009F918F914F913F912F910F900FBE0F90E9
:100C40001F90189584E592E00E945105892B11F0C0
:100C50000C94140408951F920F920FB60F92112452
:100C60002F933F938F939F93EF93FF932091B6021F
:100C70003091B7028091B8029091B90228173907D4
:100C800031F48091C1008F7D8093C10014C0E09148
:100C9000B802F091B902EA58FD4F20818091B80264
:100CA0009091B90201968F7399279093B90280931E
:100CB000B8022093C600FF91EF919F918F913F91D1
:100CC0002F910F900FBE0F901F901895CF92DF922B
:100CD000EF92FF92CF93DF93EC016A017B01411504
:100CE00081EE580761057105F9F0EC89FD8981E015
:100CF00090E008A002C0880F991F0A94E2F7808351
:100D000060E079E08DE390E0A70196010E94D22295
:100D10002150310941095109569547953795279535
:100D2000211580E1380798F0EC89FD89108260E890
:100D300074E88EE190E0A70196010E94D222215032
:100D40003109410951095695479537952795E88905
:100D5000F9893083EA89FB89208319A2EE89FF890A
:100D6000408181E090E09C010C8C02C0220F331F77
:100D70000A94E2F7422B4083EE89FF8940819C016F
:100D80000D8C02C0220F331F0A94E2F7422B4083DE
:100D9000EE89FF8940819C010E8C02C0220F331F17
:100DA0000A94E2F7422B4083EE89FF8920810F8C61
:100DB00002C0880F991F0A94E2F7809582238083EE
:100DC000DF91CF91FF90EF90DF90CF900895109238
:100DD00057021092560288EE93E0A0E0B0E08093B4
:100DE000580290935902A0935A02B0935B028FE08D
:100DF00091E090935502809354028AEB92E0909395
:100E000061028093600286E792E090936302809390
:100E1000620285EC90E0909365028093640284EC1A
:100E200090E0909367028093660280EC90E090934C
:100E300069028093680281EC90E090936B0280934A
:100E40006A0282EC90E090936D0280936C0286ECD3
:100E500090E090936F0280936E0284E08093700222
:100E600083E08093710287E08093720285E0809333
:100E7000730281E08093740208950E9470170E94AB
:100E8000CB03C2E2D6E00E9403042097E1F30E9464
:100E90002206F9CFFC0181E090E02081222311F0AD
:100EA00080E090E0089521E0FC0120830895CF9236
:100EB000DF92EF92FF920F931F93CF93DF936C011A
:100EC0007A01EB01E60EF71E00E010E0CE15DF051B
:100ED00061F06991D601ED91FC910190F081E02DD6
:100EE000C6010995080F191FF1CFC801DF91CF91F5
:100EF0001F910F91FF90EF90DF90CF9008956115B3
:100F0000710581F0DB010D900020E9F7AD01415042
:100F10005109461B570BDC01ED91FC910280F381D6
:100F2000E02D099480E090E00895EF92FF920F93F6
:100F30001F93CF93DF938C01FB01C0E0D0E064915D
:100F40007F018FEFE81AF80A662361F0D801ED916E
:100F5000FC910190F081E02DC8010995C80FD91FBF
:100F6000F701EDCFCE01DF91CF911F910F91FF904F
:100F7000EF9008950C947F07DC01ED91FC910190B6
:100F8000F081E02D09940F931F93CF93DF93EC0131
:100F90006DE00E94BC078C016AE0CE010E94BC0794
:100FA000800F911FDF91CF911F910F9108950F93A3
:100FB0001F93CF93DF93EC010E9495078C01CE0124
:100FC0000E94C307800F911FDF91CF911F910F9156
:100FD00008950F931F93CF93DF93EC010E947F0737
:100FE0008C01CE010E94C307800F911FDF91CF912A
:100FF0001F910F9108950F931F93CF93DF93EC01EF
:101000000E94BC078C01CE010E94C307800F911F74
:10101000DF91CF911F910F9108958F929F92AF9280
:10102000BF92CF92DF92EF92FF920F931F93CF93D5
:10103000DF93CDB7DEB7A1970FB6F894DEBF0FBE32
:10104000CDBF7C01C42EE52FCB01D22E19A221E009
:101050002D1510F02AE0D22E8E010F5D1F4F8D2C22
:10106000912CA12CB12C6C2D7E2FA50194010E94F6
:10107000D2228C2DD29E80191124015011098A3060
:1010800014F4805D01C0895CF8018083211531056D
:101090004105510521F0C22EE32FCA01E4CFB8016A
:1010A000C7010E947F07A1960FB6F894DEBF0FBE5E
:1010B000CDBFDF91CF911F910F91FF90EF90DF9007
:1010C000CF90BF90AF909F908F900895CF92DF9276
:1010D000EF92FF920F931F93CF93DF93EC016A017E
:1010E0007B012115310579F4E881F9810190F081C6
:1010F000E02D642FDF91CF911F910F91FF90EF9022
:10110000DF90CF9009942A303105E9F477FF1AC0B7
:101110006DE20E94BC078C0144275527BA014C1987
:101120005D096E097F092AE0CE010E940D08800F3B
:10113000911FDF91CF911F910F91FF90EF90DF9062
:10114000CF9008952AE0B701A601CE01DF91CF919B
:101150001F910F91FF90EF90DF90CF900C940D08AE
:101160009A01AB01662757FD6095762F0C946608AF
:101170000F931F93CF93DF93EC019A01AB01662786
:1011800057FD6095762F0E9466088C01CE010E9463
:10119000C307800F911FDF91CF911F910F91089589
:1011A0002115310541F4DC01ED91FC910190F081B4
:1011B000E02D642F09940C940D089A01462F50E0FD
:1011C00060E070E00C94D0089A01AB0160E070E040
:1011D0000C94D0080F931F93CF93DF93EC010E94E0
:1011E000D0088C01CE010E94C307800F911FDF91B0
:1011F000CF911F910F910895FC01808991898F3FB4
:101200002FEF920769F0268537858217930724F020
:10121000821B930B01960895821B930B08960895E9
:1012200080E090E00895EF92FF920F931F93CF9389
:10123000DF93EC017B0161157105F9F00E94FC0858
:101240000797DCF4888999898F3F2FEF920729F45B
:10125000198A188A1F861E8603C00196998B888B6F
:1012600008891989C7010E94121FF801EE0FFF1F9C
:10127000EC0FFD1F9183808302C00FEF1FEFC801A9
:10128000DF91CF911F910F91FF90EF9008950F93F1
:101290001F93CF93DF93EC018B010E94FC08892BF5
:1012A00019F00730110518F080E090E007C0F80150
:1012B000EE0FFF1FEC0FFD1F80819181DF91CF9119
:1012C0001F910F910895FC01668577850C9447095D
:1012D0000F931F93CF93DF93EC010E946309009754
:1012E000D9F00E94E01C0E851F85F801EE0FFF1F4C
:1012F000EC0FFD1F11821082CE010E94FC080197A5
:1013000039F48FEF9FEF9F878E87998B888B04C06E
:101310000F5F1F4F1F870E87DF91CF911F910F9196
:101320000895FC0127E030E011921192215031091B
:1013300021153105C9F72FEF3FEFFC0137872687CD
:10134000318B208B08950C949109EF92FF920F93AB
:101350001F93CF93DF937C01C82FDF2D07E010E0B0
:1013600089919991009711F00E94E01C0150110998
:1013700001151105A9F7C701DF91CF911F910F91B9
:10138000FF90EF900C9491098EEF92E00C949109EC
:10139000FC01858596850895CF93DF9300D000D01A
:1013A00000D0CDB7DEB7AB011C821D821E82DC01EE
:1013B000ED91FC910190F081E02D19821A821B823F
:1013C0009E012F5F3F4FBE016C5F7F4F09952696B0
:1013D0000FB6F894DEBF0FBECDBFDF91CF91089559
:1013E00081E080938804089580E991E00895579AF8
:1013F000089580917E04882331F06BE873E084E5E2
:1014000092E00E94D70781E08093870480E3809375
:10141000C60308958C5A9E4FFC016083662319F021
:101420006FE373E002C067E273E084E592E00C943E
:10143000D707EF92FF920F931F93CF93DF93EC01A7
:101440007B01FC01EB5AFE4F718360838C01075ACC
:101450001E4FF8016081718177FD04C08F559F4F49
:101460000E94381B8FEF9FEFF80191838083E11476
:10147000F104E9F19701A4E6B0E00E947122AB010A
:10148000BC0129EF39E0CE018F559F4F0E942F1BE1
:10149000F80191838083CC5ADE4F8881882339F10B
:1014A00062ED71E084E592E00E94950784E68E9DEE
:1014B000B0018F9D700D11244AE050E084E592E068
:1014C0000E94E4086EEB71E084E592E00E949507CB
:1014D000F801608171814AE050E084E592E0DF919B
:1014E000CF911F910F91FF90EF900C94B808DF916E
:1014F000CF911F910F91FF90EF900895EF92FF927F
:101500000F931F93CF93DF93EC017B01FC01E95A0A
:10151000FE4F718360838C01055A1E4FF801608174
:10152000718177FD04C08F559F4F0E94381B8FEF4C
:101530009FEFF80191838083E114F104A1F1A701E9
:1015400060E070E020EF39E0CE018F559F4F0E94A0
:101550002F1BF80191838083CC5ADE4F888188232A
:1015600011F16AEA71E084E592E00E9495074AE091
:1015700050E0B70184E592E00E94E40866E971E07A
:1015800084E592E00E949507F801608171814AE04C
:1015900050E084E592E0DF91CF911F910F91FF9091
:1015A000EF900C94B808DF91CF911F910F91FF90AD
:1015B000EF9008951F93CF93DF93162FFC01EC5A01
:1015C000FE4F2081EC01C456DF4F2223B1F060E8CA
:1015D00071E084E592E00E949507688184E592E0DD
:1015E0000E94BC076AE771E084E592E00E949507DB
:1015F000612F84E592E00E94FB071883DF91CF9171
:101600001F910895EF92FF920F931F93CF93DF9353
:10161000142F052FF62EE72EFC01EC5AFE4F2081E9
:10162000EC01C256DF4F222359F163E671E084E5F5
:1016300092E00E9495078881811109C089818111FA
:1016400006C081E09A81911103C080E001C081E071
:10165000682F70E040E150E084E592E00E94B0081D
:101660006DE571E084E592E00E94950720E130E0AD
:10167000412F502F6F2D7E2D84E592E00E94EA08C5
:10168000F88209831A83DF91CF911F910F91FF9008
:10169000EF900895FC01E356FF4F208130E0F901FF
:1016A000EE0FFF1FE20FF31FE80FF91F8FEF80838C
:1016B000818382830895DB0120E030E04C91FC01BE
:1016C000E20FF31F408311964C91119741831296BC
:1016D0004C91129742832D5F3F4F2A38310571F7A5
:1016E0000895AF92BF92CF92DF92EF92FF920F9345
:1016F0001F93CF93DF9300D01F92CDB7DEB78C013D
:101700007C018CEAE81A8EEFF80AF70180818823C1
:1017100031F066E573E084E592E00E949507F801F8
:10172000E456FF4F80E38083F801E356FF4F1082B9
:10173000F801E256FF4F10821182128219821A823A
:101740001B82BE016F5F7F4FC8010E945B0BF801D7
:10175000E35BFE4F11821082F801E15BFE4F1082C5
:1017600011828FEF8283F801EE5AFE4F11821082B0
:10177000F7011082F801E35AFE4F1082F801E25A95
:10178000FE4F10825801F1EAAF0EB11C780187EAD2
:10179000E81A8EEFF80AF70160817181C5010E9495
:1017A000381BCC24CA94DC2CF701D182C08278018A
:1017B000F5EAEF1AFEEFFF0AF70160817181C501BA
:1017C0000E94381BF701D182C082F801EB5AFE4F0C
:1017D00011821082F801E95AFE4F118210820F9097
:1017E0000F900F90DF91CF911F910F91FF90EF908D
:1017F000DF90CF90BF90AF900895CF93DF93EC012F
:101800000E94710BCE0186579F4FDF91CF910C94B0
:10181000A509CF93DF93EC0186579F4F0E94A30940
:10182000CE018F559F4F0E94811A80912203811112
:101830004DC082E293E00E944A07892B09F446C01A
:1018400010921403109213038FEF80931703809369
:1018500018038093190380931A0380931B038093CA
:101860001C0381E080931D0310921F0310921E033E
:10187000109216031092150380919F049091A0047A
:10188000892B31F481E193E09093A00480939F042D
:10189000E0919D04F0919E04309721F081E193E066
:1018A0009583848381E193E090939E0480939D04CB
:1018B000109221031092200387E491E09093120389
:1018C0008093110382E293E00E94530720E030E00E
:1018D0004EE250E0BE0181E193E00E94241ACE0165
:1018E0000E94FD0B80E00E943D04DF91CF910C949B
:1018F000AB178F929F92AF92BF92CF92DF92EF92EF
:10190000FF920F931F93CF93DF9300D01F92CDB719
:10191000DEB77C014B015C0162EAA61A6EEFB60AE3
:10192000D5018C91882309F47CC08701035B1E4F8D
:10193000F80180819181B7016E5A7E4F6B018E97BD
:101940007CF0222351F08DE290E09183808381E04E
:1019500090E0DB018D939C9303C0F801118210820B
:10196000D8018D919C911197181619065CF02223CD
:1019700031F01D921C92F6011182108203C0D80131
:101980001D921C924423D9F0F401808189838181C6
:101990008A8382818B83BE016F5F7F4FC7010E9464
:1019A0005B0BD8018D919C91FC01EE0FFF1FE80F9E
:1019B000F91FEE0DFF1D1082118212821DC01982C7
:1019C0001A821B82BE016F5F7F4FC7010E945B0BB3
:1019D000F80180819181FC01EE0FFF1FE80FF91FD4
:1019E000EE0DFF1DD4018C91808311968C9111977F
:1019F000818312968C918283F60180819181892B5B
:101A000041F4D8018D919C91119701968D939C93EF
:101A100006C0F80180819181019791838083D5016F
:101A20001C920F900F900F90DF91CF911F910F910B
:101A3000FF90EF90DF90CF90BF90AF909F908F90EE
:101A40000895CF93DF9300D01F92CDB7DEB7462F16
:101A5000FC01E35BFE4F20813181FC01E15BFE4F25
:101A60002E323105C9F420812F3F51F421812111FB
:101A700025C02281211122C0108220E8218321C0AB
:101A800021111CC021812038C9F42281211116C0E6
:101A9000108211822FEF22832081298321812A83C2
:101AA00022812B8320E0BE016F5F7F4F0E94790C63
:101AB0000F900F900F90DF91CF9108952FEF20831B
:101AC00011821282E9CFCF93DF9300D01F92CDB75E
:101AD000DEB7FC01E256FF4F2081298321812A8352
:101AE00022812B83BE016F5F7F4F0E945B0B0F90A3
:101AF0000F900F90DF91CF910895EF92FF920F9387
:101B00001F93CF93DF937C018C01025A1E4FF80183
:101B100080818823A1F0C0E0D0E06FEF7FEF8FEFEE
:101B200090E00E94B317F701EC0FFD1F80837183D3
:101B300062832396CA38D10581F7F8011082DF91BC
:101B4000CF911F910F91FF90EF900895EF92FF9228
:101B50000F931F93CF93DF93EC016BE171E084E56A
:101B600092E00E94BA0764E271E084E592E00E948C
:101B7000BA07FE01E456FF4F608184E592E00E94BF
:101B8000BC0768E271E084E592E00E94BA07FE01BA
:101B9000EB5AFE4F608171814AE050E084E592E0AB
:101BA0000E94B0086CE271E084E592E00E94BA07FE
:101BB000FE01E95AFE4F608171814AE050E084E500
:101BC00092E00E94B00860E371E084E592E00E9438
:101BD000BA07FE01E256FF4F808181110AC0818160
:101BE000811107C081E09281911101C080E0482FEE
:101BF00001C041E050E060E070E02AE030E084E5C0
:101C000092E00E94660864E371E084E592E00E943D
:101C1000BA078E0106571F4FC8010E94FC084AE010
:101C200050E0BC0184E592E00E94B00868E371E0F6
:101C300084E592E00E94BA07FE01E856FF4F6081FA
:101C400071814AE050E084E592E00E94B0086CE3C4
:101C500071E084E592E00E94BA07C656DF4F6881C2
:101C600079814AE050E084E592E00E94B008C0E04B
:101C7000D0E0BE01C8010E9447097C01009791F0A5
:101C80006CE371E084E592E00E94BA074AE050E01C
:101C9000BE0184E592E00E94B008B70184E592E0BD
:101CA0000E94BA072196C730D10519F763E371E0A6
:101CB00084E592E0DF91CF911F910F91FF90EF901B
:101CC0000C94E9078F929F92AF92BF92CF92DF92CE
:101CD000EF92FF920F931F93CF93DF93CDB7DEB7B1
:101CE00027970FB6F894DEBF0FBECDBF7C016B0106
:101CF0001E821D821C821B821A821982FB010190A6
:101D00000020E9F7CF0101975C01A61AB70A870105
:101D10000C5A1E4FF8018081882359F067E173E067
:101D200084E592E00E949507B60184E592E00E9466
:101D3000E907F60180818C3409F050C145019924EE
:101D4000F2E08F16910444F4F8018081882309F4AD
:101D500060C169EF72E048C1F6018181813509F403
:101D6000C5C074F4843409F4D3C01CF4833409F17D
:101D70002EC18D3409F4D7C0803509F49AC027C12B
:101D8000843509F47EC03CF4833509F020C1C701D5
:101D90000E94A60DC6C0883541F0843609F017C1EF
:101DA00060E0C7010E940A0ABCC0C7010E94710B13
:101DB000B8C0F8018081FAE08F16910434F48823CA
:101DC00009F425C16EED72E07FC0882331F069EC23
:101DD00072E084E592E00E949507CE0105969F93FC
:101DE0008F93E0E4AE2EE1E0BE2EBF92AF92C6012B
:101DF00002969F938F930E943E1FCE0103969F935E
:101E00008F93BF92AF92C60105969F938F930E94C6
:101E10003E1FCE0101969F938F93BF92AF92F8E041
:101E2000CF0ED11CDF92CF920E943E1F4D815E816A
:101E3000662757FD6095762FBA01552744278B8179
:101E40009C81AA2797FDA095BA2FBA2FA92F982F6A
:101E50008827482B592B6A2B7B2B89819A81AA27AB
:101E600097FDA095BA2F482B592B6A2B7B2BC701C6
:101E70000E94020B0FB6F894DEBF0FBECDBF2AE062
:101E8000B9C096E08916910444F4F8018081882352
:101E900009F4BDC06CEA72E017C04AE050E060E0AF
:101EA00070E0C60102960E94CC1DC7010E94190A6B
:101EB0001BC0F6E08F16910464F4F801808188233A
:101EC00009F4A5C06FE872E084E592E00E94D707AC
:101ED0009EC04AE050E060E070E0C60102960E94B9
:101EE000CC1DC7010E947E0A26E084C0B6016E5F49
:101EF0007F4FC70186579F4F0E941309F8018081C9
:101F0000882319F0C7010E94A60D22E02A0D72C095
:101F100081E0F80180836FE373E084E592E00E9442
:101F2000D70722E067C0F6012281F701E456FF4F90
:101F3000B080622FC7012F830E94DA0A2F812F34CD
:101F4000E9F06CF4233409F454C01CF42134A1F5F5
:101F500050C02B3409F44DC02E3471F54AC02336DD
:101F600009F447C034F4243509F443C0273521F57A
:101F700040C02B36F1F12437F9F43BC0F5E08F1661
:101F8000910464F4F8018081882331F061E772E004
:101F900084E592E00E94D70723E03CC04AE050E08D
:101FA00060E070E0C60103960E94CC1DF701E35685
:101FB000FF4F608325E01EC06B2DC7010E94DA0A27
:101FC000F8018081882341F36AE472E0E1CFF801EF
:101FD00080818823E1F06EE272E076CFF8018081A3
:101FE0008823B9F06EE072E084E592E00E94D707A2
:101FF00010C023E0F8018081882361F068EE71E071
:1020000084E592E02F830E94D7072F8103C022E04E
:1020100001C021E0822F27960FB6F894DEBF0FBED5
:10202000CDBFDF91CF911F910F91FF90EF90DF9087
:10203000CF90BF90AF909F908F900895CF92DF92F6
:10204000EF92FF920F931F93CF93DF936C018B015D
:10205000EB0109900020E9F72197C61BD70BE12C73
:10206000F12CCE018E199F09181619063CF56AE36A
:1020700070E0C8010E942C1F892BA1F4F601EC5AD4
:10208000FE4F80818823D1F068E673E084E592E01A
:10209000DF91CF911F910F91FF90EF90DF90CF9044
:1020A0000C94D7078FEFE81AF80AB8016E0D7F1D60
:1020B000C6010E94620EE80EF11CD3CFDF91CF91D2
:1020C0001F910F91FF90EF90DF90CF900895CF92E6
:1020D000DF92EF92FF920F931F93CF93DF9300D085
:1020E0001F92CDB7DEB78C018F559F4F0E94731B97
:1020F00068018CE9C80ED11CF60180818033E9F4B7
:102100007801FAE8EF0EF11CC7010E94FC081816CE
:1021100019069CF4F801EC5AFE4F8081882319F0CF
:10212000C8010E94A60DC7010E946309BC01C80135
:102130000E941E10C7010E946809F60180818F3439
:10214000F9F19CF4833431F13CF4813409F05AC044
:10215000C8010E94630D5BC08B34B1F18E3409F06D
:1021600051C0C8010E947D0D52C08336F1F034F495
:10217000843559F0873509F44AC044C08B3681F163
:10218000843709F03FC061E001C060E0C8010E94EF
:10219000210D3DC0F801E256FF4F80818983818186
:1021A0008A8382818B8320E019C0F801E256FF4FB9
:1021B0008081898381818A8382818B8320E01AC018
:1021C000C8010E944A0B23C0F801E256FF4F8081EC
:1021D000898381818A8382818B8321E040E00BC0E7
:1021E000F801E256FF4F8081898381818A83828151
:1021F0008B8321E041E0BE016F5F7F4FC8010E94E9
:10220000790C05C060E081EA94E00E94BE196091FB
:10221000A10481EA94E00E9496180F900F900F900D
:10222000DF91CF911F910F91FF90EF90DF90CF90B2
:1022300008959F92AF92BF92CF92DF92EF92FF925A
:102240000F931F93CF93DF93EC01E881F9819BB14A
:1022500090688BB18F778BB95A852F81D52ED21A82
:10226000DF82AF84AA81BB812D853C854E852F5F9F
:102270003F5F4F5FEE80F8849984CB851181C12C3C
:102280000C2D6C2D7C2D71811127889471117D0D81
:1022900008F47FEFD194889420FD170F1795889448
:1022A00021FD170F1795889422FD170F1795889415
:1022B00023FD170F1795889424FD170F1795889401
:1022C00025FD170F1795889426FD170F17958894ED
:1022D00027FD170F17958894072F2111012FD50E71
:1022E000102F002C9BB900C017FF8BB970810027FD
:1022F000889400C000C0002C8BB971117E0D00C005
:10230000002C9BB900C016FF8BB908F47FEFE19455
:10231000889400C000C0002C8BB930FD070F00C0AE
:10232000002C9BB900C015FF8BB90795889431FD2F
:10233000070F00C000C0002C8BB90795889400C01F
:10234000002C9BB900C014FF8BB932FD070F079515
:10235000889400C000C0002C8BB933FD070F00C06B
:10236000002C9BB900C013FF8BB90795889434FDEE
:10237000070F00C000C0002C8BB90795889400C0DF
:10238000002C9BB900C012FF8BB935FD070F0795D4
:10239000889400C000C0002C8BB936FD070F00C028
:1023A000002C9BB900C011FF8BB90795889437FDAD
:1023B000070F00C000C0002C8BB90795889400C09F
:1023C000002C9BB900C010FF8BB9172F3111102FB3
:1023D000E90C00C000C0002C8BB900C000C0002C6C
:1023E0009BB900C017FF8BB972810027889400C089
:1023F00000C0002C8BB971117F0D00C0002C9BB95F
:1024000000C016FF8BB908F47FEFEA0DF11D00C084
:1024100000C0002C8BB940FD070F00C0002C9BB9F9
:1024200000C015FF8BB90795889441FD070F00C0C8
:1024300000C0002C8BB90795889400C0002C9BB974
:1024400000C014FF8BB942FD070F0795889400C0A8
:1024500000C0002C8BB943FD070F00C0002C9BB9B6
:1024600000C013FF8BB90795889444FD070F00C087
:1024700000C0002C8BB90795889400C0002C9BB934
:1024800000C012FF8BB945FD070F0795889400C067
:1024900000C0002C8BB946FD070F00C0002C9BB973
:1024A00000C011FF8BB90795889447FD070F00C046
:1024B00000C0002C8BB90795889400C0002C9BB9F4
:1024C00000C010FF8BB9172F4111102FF19400C0DD
:1024D00000C0002C8BB9FC0E00C000C09BB900C02E
:1024E00017FF8BB971810027889400C000C0002CB1
:1024F0008BB971117D0D00C0002C9BB900C016FF77
:102500008BB908F47FEFD194889400C000C0002CF0
:102510008BB920FD070F00C0002C9BB900C015FF30
:102520008BB90795889421FD070F00C000C0002CCF
:102530008BB90795889400C0002C9BB900C014FF8C
:102540008BB922FD070F0795889400C000C0002CAE
:102550008BB923FD070F00C0002C9BB900C013FFEF
:102560008BB90795889424FD070F00C000C0002C8C
:102570008BB90795889400C0002C9BB900C012FF4E
:102580008BB925FD070F0795889400C000C0002C6B
:102590008BB926FD070F00C0002C9BB900C011FFAE
:1025A0008BB90795889427FD070F00C000C0002C49
:1025B0008BB90795889400C0002C9BB900C010FF10
:1025C0008BB9172F2111102FD50E00C000C0002C81
:1025D0008BB9119709F086CEDF91CF911F910F91A2
:1025E000FF90EF90DF90CF90BF90AF909F900895B5
:1025F0000F931F93CF93DF93EC018B010E9427175A
:102600002F853889621B730B6A307105B8F3F89413
:10261000C8010E941911F8014281538120EE31E076
:10262000DA010E948022E4E0969587957795679578
:10263000EA95D1F720E030E0EAE94E9F040E211D33
:102640005E9F200D311D1124250F311D620F731F58
:10265000811D911D693EF3E07F078105910508F416
:1026600038C0DC01CB01885E9340A109B10932E09A
:10267000B695A795979587953A95D1F740E050E0A4
:1026800027E0829F080E411D929F400D511D11248D
:10269000490F511D2091890430E0280F391F240F64
:1026A000351F80918B0490918C04A0918D04B09182
:1026B0008E04432F5527840F951FA11DB11D8093B4
:1026C0008B0490938C04A0938D04B0938E0420937C
:1026D000890478940E942717788B6F87DF91CF91B8
:1026E0001F910F910895FC01118A108A0895FF929D
:1026F0000F931F93CF93DF93EC01809110038F5FB3
:10270000982F97709093100380FD02C080E001C065
:1027100080E891FD8064947009F08062F0E1FF2E02
:10272000F80E20E030E000E011E0FE01E20FF31FC0
:102730006485662331F070E0C8010E94BE226F5F9D
:1027400001C060E061874F2D469F040E40E0411DAF
:102750001124411102C0168202C0415046836623F3
:1027600011F0615061872F5F3F4F23303105E9F64B
:10277000DF91CF911F910F91FF900895EF92FF92FB
:102780000F931F93CF93DF93CDB7DEB762970FB64A
:10279000F894DEBF0FBECDBF8C017A01F901DC01D8
:1027A0001C968C917A8369835C834B835E834D8313
:1027B00090819D8791819E8792819F87813029F4A6
:1027C000CE0101960E94771306C01C861B861A86CE
:1027D000198618861F82188AB701CE0101960E94B9
:1027E0007313D801ED91FC910484F585E02DBE01B1
:1027F0006F5F7F4FC801099562960FB6F894DEBFF0
:102800000FBECDBFDF91CF911F910F91FF90EF9041
:102810000895EF92FF920F931F93CF93DF93CDB75D
:10282000DEB762970FB6F894DEBF0FBECDBF8C0146
:102830007A01F901DC011C968C917A8369835C83AF
:102840004B835E834D8390819D8791819E8792818A
:102850009F87813029F4CE0101960E94771306C02C
:102860001C861B861A86198618861F8283E0888B31
:10287000B701CE0101960E947313D801ED91FC912E
:102880000484F585E02DBE016F5F7F4FC801099577
:1028900062960FB6F894DEBF0FBECDBFDF91CF9129
:1028A0001F910F91FF90EF9008958AE293E00C94AE
:1028B000090CFC01638F0C947D03FC01238D2338EC
:1028C00010F02A5002C028E7FC01238FFC01638D21
:1028D0000C945914FC01238D253F10F4265F02C08F
:1028E0002FEFFC01238FFC01638D0C9459140E947F
:1028F0003F0364E670E080E090E00C944A170E9489
:10290000200364E670E080E090E00C944A170E9497
:102910003F0360E971E080E090E00C944A171F9358
:10292000CF93DF93EC01162F8C8D8823B1F069EEE5
:1029300073E084E592E00E9495076A8D84E592E059
:102940000E94BC0763EE73E084E592E00E94950765
:10295000612F84E592E00E94FB071A8FDF91CF91EF
:102960001F910895EF92FF920F931F93CF93DF93E0
:102970008C0165E571E084E592E00E94BA076DE59F
:1029800071E084E592E00E94BA07F801628D84E567
:1029900092E00E94BC0761E671E084E592E00E944B
:1029A000BA074AE050E0F801638D84E592E00E94A6
:1029B000DD08C0E0D0E0085F1F4FBE01C8010E94E3
:1029C00047097C01009791F065E671E084E592E0AB
:1029D0000E94BA074AE050E0BE0184E592E00E94FE
:1029E000B008B70184E592E00E94BA072196C7308B
:1029F000D10519F763E371E084E592E0DF91CF91AF
:102A00001F910F91FF90EF900C94E907FC01648FE8
:102A1000662319F06CEC73E002C064EB73E084E5AC
:102A200092E00C94D707EF92FF920F931F93CF93EE
:102A3000DF93EC018B01FB0101900020E9F7CF014E
:102A400001977C01E61AF70A8C8D882359F06DEC0A
:102A500074E084E592E00E949507B80184E592E075
:102A60000E94E907F8018081853409F0A7C0C701F9
:102A70009927823091053CF48C8D882309F4B7C0E6
:102A80006CEA74E0A0C0F8012181213509F442C04C
:102A9000D4F4273409F45AC07CF4223409F45AC01F
:102AA000243409F081C081E08C8F6CEC73E084E504
:102AB00092E00E94D70756C02C3409F43FC02D3451
:102AC00009F452C071C02535E9F14CF4223591F179
:102AD000233509F069C0CE010E94B21443C02436E8
:102AE000E9F1233709F060C005973CF48C8D882309
:102AF00009F47BC060E974E05CC04AE050E060E04B
:102B000070E0C80102960E94CC1DCE010E945914AB
:102B100015E05FC0B8016E5F7F4FCE0108960E943E
:102B200013098C8D882319F0CE010E94B21412E093
:102B30001E0D4FC0CE010E947F1414C0CE010E9412
:102B4000771410C0CE010E9487140CC0CE010E94E1
:102B50006A1408C0CE010E945D1404C060E0CE017A
:102B60000E94061512E035C0F80112810A8D612F0E
:102B7000CE010E948F141C3459F12CF4123441F10F
:102B8000163431F103C01255123010F1602FCE010E
:102B90000E948F148C8D882331F165E674E084E502
:102BA00092E00E94D7071FC08C8D8823F1F065E466
:102BB00074E084E592E00E94D70717C08C8D8823CB
:102BC000B1F065E274E084E592E00E94D7070FC09F
:102BD00013E08C8D882361F06FEF73E084E592E061
:102BE0000E94D70705C013E003C012E001C011E046
:102BF000812FDF91CF911F910F91FF90EF9008955A
:102C0000CF92DF92EF92FF920F931F93CF93DF93B8
:102C10006C018B01EB0109900020E9F72197C61B9D
:102C2000D70BE12CF12CCE018E199F09181619062D
:102C30002CF56AE370E0C8010E942C1F892B91F4E7
:102C4000F601848D8823D1F06DED74E084E592E087
:102C5000DF91CF911F910F91FF90EF90DF90CF9078
:102C60000C94D707FFEFEF1AFF0AB8016E0D7F1D16
:102C7000C6010E941315E80EF11CD5CFDF91CF914C
:102C80001F910F91FF90EF90DF90CF9008950F93D9
:102C90001F93CF93DF93EC018A8D8033C9F48E01AB
:102CA000085F1F4FC8010E94FC081816190684F41B
:102CB0008C8D882319F0CE010E94B214C8010E94A5
:102CC0006309BC01CE010E940016C8010E94680978
:102CD0008A8D8C34E1F05CF4823491F08634F1F426
:102CE000CE01DF91CF911F910F910C94010382359A
:102CF000A9F4CE01DF91CF911F910F910C94200385
:102D0000CE01DF91CF911F910F910C94E202CE0181
:102D1000DF91CF911F910F910C943F03CE01DF9172
:102D2000CF911F910F910C945E03CF93DF93EC0131
:102D30008C8D882331F062EA73E084E592E00E9492
:102D4000950780E38A8F88EC8B8F1C8EDF91CF9163
:102D50000895CF93DF93EC010E949516CE0108965B
:102D6000DF91CF910C94A509CF92EF920F93CF935F
:102D7000DF93EC0184E0C82E9DE0E92E05E02CE015
:102D80004BE066E0CE010E94B502CE0108960E949B
:102D9000A309CE01DF91CF910F91EF90CF900C94CA
:102DA000A9161F920F920FB60F9211242F933F93E3
:102DB0008F939F93AF93BF9380918B0490918C04DA
:102DC000A0918D04B0918E0430918A0423E0230FEA
:102DD0002D3720F40196A11DB11D05C026E8230F53
:102DE0000296A11DB11D20938A0480938B049093B9
:102DF0008C04A0938D04B0938E0480918F049091E5
:102E00009004A0919104B09192040196A11DB11D6E
:102E100080938F0490939004A0939104B0939204B4
:102E2000BF91AF919F918F913F912F910F900FBEC6
:102E30000F901F9018952FB7F89460918B047091A4
:102E40008C0480918D0490918E042FBF08953FB71C
:102E5000F89480918F0490919004A0919104B09186
:102E6000920426B5A89B05C02F3F19F00196A11D1D
:102E7000B11D3FBF6627782F892F9A2F620F711DD2
:102E8000811D911D42E0660F771F881F991F4A958B
:102E9000D1F70895CF92DF92EF92FF92CF93DF9315
:102EA0006B017C010E942717EB01C114D104E104DE
:102EB000F10479F00E9427176C1B7D0B683E73406C
:102EC000A0F381E0C81AD108E108F108C851DC4F2D
:102ED000ECCFDF91CF91FF90EF90DF90CF900895EE
:102EE000789484B5826084BD84B5816084BD85B5E5
:102EF000826085BD85B5816085BDEEE6F0E08081AC
:102F000081608083E1E8F0E01082808182608083CC
:102F1000808181608083E0E8F0E08081816080834F
:102F2000E1EBF0E0808184608083E0EBF0E0808181
:102F300081608083EAE7F0E0808184608083808123
:102F400082608083808181608083808180688083CB
:102F50001092C1000895009729F0BC0180E090E034
:102F60000C94C31D0895CF93DF9300D000D0CDB74C
:102F7000DEB79B01AC01611571058105910569F012
:102F800069833A834B835C830E94BE1D29813A8109
:102F90004B815C810E94F42203C060E070E0CB01B1
:102FA0000F900F900F900F90DF91CF9108958F9217
:102FB0009F92AF92BF92EF92FF920F931F93CF9386
:102FC000DF93EC01188219821A824423B9F1E0E000
:102FD000F0E08B010A5F1F4F7B0189E0E80EF11CD6
:102FE000842E912CA12CB12CD801AE0FBF1F2C9197
:102FF000D701AE0FBF1F6C912223E1F06623D1F001
:1030000030E040E050E02F5F3F4F4F4F5F4F70E0A8
:1030100080E090E06F5F7F4F8F4F9F4F0E949A221A
:103020009B01AC01C501B4010E949A22DE01AE0FE2
:10303000BF1F8C933196E330F105B1F6CE01DF91DD
:10304000CF911F910F91FF90EF90BF90AF909F9005
:103050008F900895CF93DF93C0919F04D091A004E7
:10306000209791F08A819B81009751F02D853E85B4
:10307000A901440F551F420F531F60E00E94761AAA
:103080000C80DD81C02DECCFDF91CF910895CF92E0
:10309000DF92EF92FF92CF93DF93EC018091970440
:1030A000909198049C012F5F3F4F30939804209398
:1030B0009704861797079CF10E941B179B01AC0190
:1030C000E0919704F091980488EE93E0E89FB001B6
:1030D000E99F700DF89F700D1124882777FD80956A
:1030E000982FC0909304D0909404E0909504F090B1
:1030F00096042C193D094E095F090E94D2223A8399
:10310000298310929804109297040E941B176093D1
:103110009304709394048093950490939604DF91A4
:10312000CF91FF90EF90DF90CF9008958F929F9274
:10313000AF92BF92EF92FF920F931F93CF93DF93C3
:1031400000D01F92CDB7DEB78C01F62EF801838137
:103150009481A581B681892B8A2B8B2BD1F00E947B
:1031600027178090990490909A04A0909B04B090A7
:103170009C04681979098A099B09D80113968D90D6
:103180009D90AD90BC901697681579058A059B05B2
:10319000E8F20E9427176093990470939A04809331
:1031A0009B0490939C04D8011B96ED91FC911C9775
:1031B000309751F0D80117964D915D916D917C91AA
:1031C0001A978F2D0995F82EA0909F04B090A00417
:1031D000A114B10451F1F501E484D80111968D9147
:1031E0009C9112978436910508F41486D501ED91CF
:1031F000FC91828093804F2DB501CE0101960E94F3
:10320000D717F50145855685628173819E012F5F31
:103210003F4FC501F4010995D5011C96EC921C970E
:103220001496AD90BC901597D3CF69E170E0C801BA
:103230000E9447180F900F900F90DF91CF911F9130
:103240000F91FF90EF90BF90AF909F908F90089557
:103250008F929F92AF92BF92CF92DF92EF92FF92A6
:103260000F931F93CF93DF9300D01F92CDB7DEB79C
:103270008C017B01D42EF80183819481A581B681D4
:10328000892B8A2B8B2BD1F00E94271780909904D1
:1032900090909A04A0909B04B0909C0468197909BE
:1032A0008A099B09D80113968D909D90AD90BC9092
:1032B0001697681579058A059B05E8F20E9427177D
:1032C0006093990470939A0480939B0490939C0458
:1032D000D8011B96ED91FC911C97309751F0D801C5
:1032E00017964D915D916D917C911A978D2D099551
:1032F000D82EA0909F04B090A004A114B10449F16D
:10330000F501C484D80111968D919C911297843651
:10331000910508F41486D501ED91FC91808091808F
:103320004D2DB501CE0101960E94D717F5014585B7
:1033300056859E012F5F3F4FB701C501F4010995E6
:10334000D5011C96CC921C971496AD90BC90159705
:10335000D4CF69E170E0C8010E9447180F900F9028
:103360000F90DF91CF911F910F91FF90EF90DF9021
:10337000CF90BF90AF909F908F9008950F931F9321
:10338000CF93DF9300D01F92CDB7DEB78C016623B9
:1033900049F019821A821B8240E0BE016F5F7F4FA5
:1033A0000E942819C8010E942A180F900F900F90B0
:1033B000DF91CF911F910F910895CF92DF92EF92FD
:1033C000FF920F931F93CF93DF93EC014423F1F00F
:1033D0006115710581F19B0140E050E060E472E409
:1033E0008FE090E00E94F422CB80DC80ED80FE80B4
:1033F00089019A010C151D052E053F0510F4970152
:1034000086010B831C832D833E8315C061157105D6
:1034100071F09B0140E050E060E472E48FE090E0E6
:103420000E94F4222B833C834D835E8304C01B8265
:103430001C821D821E82DF91CF911F910F91FF9000
:10344000EF90DF90CF900895CF92DF92EF92FF92AE
:103450000F931F93CF93DF93EC016B018A017901E6
:10346000121613061CF07A0100E010E0E881F981E1
:103470000480F581E02DCE010995C801880F991FC0
:10348000800F911F8C0D9D1D9B838A83FE86ED8688
:10349000E881F9810284F385E02DCE01099541E0B0
:1034A000BC0181EA94E00E94DD19CE01DF91CF9149
:1034B0001F910F91FF90EF90DF90CF9008958FEFC5
:1034C0008093A1041092A3041092A2041092AD0460
:1034D0001092AC048FEF9FEFDC018093A8049093CF
:1034E000A904A093AA04B093AB040895DC0140FFA3
:1034F00003C001C06D936D934250E0F75040D0F788
:1035000008950F931F93CF93DF93EC010E941B1735
:10351000FE018E0120E030E0AE01420F531F445700
:103520005F4FDA011C9211A610A6D8016D937D930E
:103530008D939D938D01AF0148585F4FDA011D9225
:103540001C922F5F3F4F32962A30310529F7C6551E
:10355000DF4F19821882DF91CF911F910F9108954B
:10356000FC01E655FF4F208131812A30310584F47A
:10357000FC0120E030E080A591A5892B39F02F5F78
:103580003F4F32962A303105B1F702C0C901089584
:103590008FEF9FEF08958F929F92AF92BF92CF923D
:1035A000DF92EF92FF920F931F93CF93DF9300D0A0
:1035B00000D0CDB7DEB77C01590149835A836B83B4
:1035C0007C830E94B01A4C0149815A816B817C81B5
:1035D00097FD32C0A114B10479F16C01CC0CDD1C53
:1035E000CC0CDD1CCE0CDF1CF60144AF55AF66AF32
:1035F00077AFF401EE0FFF1FEE0DFF1DB1A6A0A6E1
:10360000EC59FF4F11830083F701E80DF91DE457D2
:10361000FF4F81E080830E941B17F6016083718356
:1036200082839383F701E655FF4F80819181019654
:1036300091838083C40102C08FEF9FEF0F900F90A2
:103640000F900F90DF91CF911F910F91FF90EF900E
:10365000DF90CF90BF90AF909F908F9008950F9381
:103660001F9300E010E00E94CB1A1F910F91089564
:10367000CF93DF936A3071059CF5EC01C655DF4F9F
:10368000288139812115310559F1FB01EE0FFF1F0A
:10369000E80FF91F40A551A5452B11F111A610A661
:1036A000DC01A60FB71FA457BF4F1C92DF01AA561B
:1036B000BF4F1D921C92DB011F96AA0FBB1FAA0FC2
:1036C000BB1FA80FB91F1D921D921D921C9213972C
:1036D000E858FF4F11821082215031093983288325
:1036E000DF91CF9108952F923F924F925F926F9208
:1036F0007F928F929F92AF92BF92CF92DF92EF9282
:10370000FF920F931F93CF93DF9300D000D000D090
:10371000CDB7DEB79E838D830E941B172D813E811E
:103720003C832B83F9011A82198222242394312CA1
:103730009F012A563F4FD9011D921C9240A551A5C9
:10374000452B09F454C0AB81BC818D909D90AD9008
:10375000BC901397DC96CD90DD90ED90FC90DF97B8
:103760002B013C01481859086A087B084C145D0479
:103770006E047F04E0F1C80CD91CEA1CFB1CCD923E
:10378000DD92ED92FC92139749815A81AD81BE8101
:103790004A0F5B1F44575F4FDA014C91442339F1C4
:1037A000AF014C595F4FDA014D915C9141155105C4
:1037B00021F4D9012D923C921AC07F01B8E7EB0E9B
:1037C000F11CD7010D911C910417150784F4D90140
:1037D0002D923C920F5F1F4FD7010D931C9304173E
:1037E00015072CF042E050E0D9014D935C93A9817C
:1037F000BA811196BA83A98332962B813C812C5FC2
:103800003F4F3C832B831A9709F092CF0D811E8185
:10381000E12CF12CF801EA56FF4F80819181813033
:10382000910571F0029791F4D8019896ED91FC9171
:1038300099970995B7018D819E810E94381B06C01A
:10384000D8019896ED91FC9199970995BFEFEB1AE5
:10385000FB0A0E5F1F4F2AE0E216F104D9F6269606
:103860000FB6F894DEBF0FBECDBFDF91CF911F9191
:103870000F91FF90EF90DF90CF90BF90AF909F900F
:103880008F907F906F905F904F903F902F90089512
:10389000CF93DF938230910510F482E090E0E091C5
:1038A000B004F091B10420E030E0A0E0B0E0309747
:1038B00039F14081518148175907B8F04817590725
:1038C00071F482819381109729F013969C938E93C3
:1038D00012972CC09093B1048093B00427C0211597
:1038E000310531F04217530718F0A901DB0101C07F
:1038F000EF019A01BD01DF010280F381E02DD7CFF6
:1039000021153105F9F0281B390B2430310580F4DD
:103910008A819B816115710521F0FB01938382836C
:1039200004C09093B1048093B004FE01329644C069
:10393000FE01E20FF31F81939193225031093983E5
:1039400028833AC02091AE043091AF04232B41F478
:1039500020910201309103013093AF042093AE0413
:1039600020910001309101012115310541F42DB75D
:103970003EB74091040150910501241B350BE091A5
:10398000AE04F091AF04E217F307A0F42E1B3F0B37
:103990002817390778F0AC014E5F5F4F24173507C1
:1039A00048F04E0F5F1F5093AF044093AE048193D5
:1039B000919302C0E0E0F0E0CF01DF91CF91089554
:1039C000CF93DF93009709F487C0FC0132971382ED
:1039D0001282C091B004D091B104209781F420816B
:1039E0003181280F391F8091AE049091AF04821766
:1039F000930779F5F093AF04E093AE046DC0DE0158
:103A000020E030E0AE17BF0750F412964D915C9164
:103A100013979D014115510509F1DA01F3CFB383E5
:103A2000A28340815181840F951F8A179B0771F4EF
:103A30008D919C911197840F951F0296918380839D
:103A400012968D919C911397938382832115310552
:103A500029F4F093B104E093B0043EC0D901139669
:103A6000FC93EE9312974D915D91A40FB51FEA1749
:103A7000FB0779F480819181840F951F0296D9010B
:103A800011969C938E938281938113969C938E932F
:103A90001297E0E0F0E08A819B81009719F0FE0127
:103AA000EC01F9CFCE01029628813981820F931F54
:103AB0002091AE043091AF042817390769F430978C
:103AC00029F41092B1041092B00402C01382128241
:103AD000D093AF04C093AE04DF91CF9108958F923D
:103AE0009F92AF92BF92CF92DF92EF92FF92CF93CD
:103AF000DF93EC01688179818A819B816115710571
:103B00008105910521F464E279ED8BE597E02DE1E3
:103B100033EF41E050E00E94F42249015A019B0139
:103B2000AC01A7EAB1E40E9487226B017C01ACEEF4
:103B3000B4EFA50194010E949522C60ED71EE81E7F
:103B4000F91EF7FE06C081E0C81AD108E10880E836
:103B5000F80AC882D982EA82FB82C701B6019F7740
:103B6000DF91CF91FF90EF90DF90CF90BF90AF901B
:103B70009F908F9008950E946F1D089586E091E0B8
:103B80000E946F1D08956093060170930701809352
:103B900008019093090108952F923F925F926F92CE
:103BA0007F928F929F92AF92BF92CF92DF92EF92CD
:103BB000FF920F931F93CF93DF938B01EA0161155F
:103BC000710521F0DB018C9311969C93209739F0BD
:103BD0009E01225031092332310508F0FBC07C01DF
:103BE0006701BFEFCB1ADB0A5601F7016080862D13
:103BF00090E00E94031F892B11F07601F1CFFDE2C6
:103C00006F120AC0570182E0A80EB11CD7011196AD
:103C10006C90772473940BC0BBE26B1207C0570102
:103C2000E2E0AE0EB11CD70111966C90712CCE0162
:103C30008F7E892B89F4B0E36B1222C0F50180815D
:103C40008F7D883541F56180F2E0AF0EB11C872D84
:103C50008260782EC0E1D0E0C830D105F1F04CF49C
:103C6000C230D10511F5C12CD12CE12CB0E4FB2ED2
:103C70002FC0CA30D10531F0C031D10521F115C0B6
:103C8000209751F7CAE0D0E0ACECCA2EDC2CEC2C2B
:103C9000ACE0FA2E1DC02097F9F6C8E0D0E0C12CA8
:103CA000D12CE12CF0E1FF2E13C060E070E080E049
:103CB00090E89E01442737FD4095542F0E94D22260
:103CC00069017A0105C0C12CD12CE12CE8E0FE2E5F
:103CD000F50160E020E030E0A9014E01AA2497FC44
:103CE000A094BA2C1F0170ED572E560CA9E0A51513
:103CF00070F48FEB860D8A3118F499EC592E06C0BA
:103D00008FE9860D8A3130F589EA582E560C852DBB
:103D100090E08C179D07F4F467FD18C0C216D30617
:103D2000E406F50680F0C501B4010E949A229B01C9
:103D3000AC01250D311D411D511D213031054105BD
:103D4000B0E85B0710F06FEF01C061E03196D10180
:103D50006C90C8CF872D81700115110571F0662315
:103D600029F03197D801ED93FC9307C071FE19C07B
:103D70003297D801ED93FC9314C067FF12C08823DB
:103D800029F020E030E040E050E804C02FEF3FEFA2
:103D90004FEF5FE782E290E09093B3048093B20428
:103DA00016C0882341F050954095309521953F4F9E
:103DB0004F4F5F4F0CC057FF0AC082E290E09093D4
:103DC000B3048093B2042FEF3FEF4FEF5FE7B901E9
:103DD000CA0104C060E070E080E090E0DF91CF9124
:103DE0001F910F91FF90EF90DF90CF90BF90AF9019
:103DF0009F908F907F906F905F903F902F9008954D
:103E0000F8940C945023911107C3803219F0895013
:103E10008550D0F70895FB01DC0105900D9200203C
:103E2000E1F708950F931F93CF93DF938C01FC016B
:103E300001900020E9F7CF01801B910B0E94481CE4
:103E4000EC01009719F0B8010E94371FCE01DF91F5
:103E5000CF911F910F910895FC018191861721F058
:103E60008823D9F7992708953197CF010895FB0149
:103E7000DC0101900D920020E1F70895AEE0B0E082
:103E8000E4E4FFE10C94232385E08C838B899C89F7
:103E90009A838983AE01495E5F4F6D897E89CE0129
:103EA00001960E94D5202E96E2E00C943F2320FD3F
:103EB00009C0FC0123FD05C022FF02C07383628399
:103EC00051834083089544FD10C046FD10C0DB01BE
:103ED000FC01AA0FBB1FEE1FFF1F1094D1F76A0F42
:103EE0007B1F8E1F9F1F31E003C033E001C034E011
:103EF000660F771F881F991F3150D1F7620F711D10
:103F0000811D911D08950F931F93CF93DF938C0113
:103F1000C8010E941A22EC0197FD08C00E94031FED
:103F2000892BB1F7B801CE010E945822CE01DF9152
:103F3000CF911F910F9108958F929F92AF92CF9240
:103F4000DF92EF92FF920F931F93CF93DF93EC01D9
:103F5000A62E4A01022F0E941A22AC0155274B328D
:103F6000510521F04D32510551F40068AA9411F425
:103F700080E067C0CE010E941A2297FDF9CF102F72
:103F80001D7F302F307301F58033F1F4FF24FA9454
:103F9000FA0C09F442C0CE010E941A2297FD3DC0DE
:103FA000382F3F7D383551F41264AA94AA94A9F1B0
:103FB000CE010E941A2297FF07C02FC006FF02C041
:103FC000126001C01261AF2CC12CD12C760120ED02
:103FD000280F283080F014FF04C0BE010E94582230
:103FE00019C02A3040F016FFF8CF2F7D3FEE320F78
:103FF000363098F72750412FC701B6010E94631F42
:104000006B017C011260AA9459F0CE010E941A2221
:1040100097FFDDCF11FD04C0ABCFC12CD12C7601B1
:1040200017FF08C0F094E094D094C094C11CD11C38
:10403000E11CF11C212FB701A601C4010E94571FEA
:1040400081E0DF91CF911F910F91FF90EF90DF9072
:10405000CF90AF909F908F900895A1E2B0E0E3E3FE
:10406000F0E20C9418235C017A018E010F5F1F4F60
:10407000680180E2D8011D928A95E9F7F501738005
:1040800040E050E0812CB0E0912C81E090E0F9011B
:1040900073FCA59173FEA1918F017A2F9F01A1114D
:1040A00003C080E090E07DC0AE3519F441155105A4
:1040B00059F1E92DF0E0E417F5073CF4AD3569F16D
:1040C000AD3219F4BB2319F103C0B11101C08A2E1E
:1040D000E72FE695E695E69586010E0F111DF8018E
:1040E000A72FA7708C0102C0000F111FAA95E2F73D
:1040F000D801B081BA2BB083781559F0781510F437
:104100007F5FE6CF7150E4CF9924939403C0B1E070
:1041100001C0B0E04F5F5F4FBACFBB2319F08E8173
:1041200080628E83911003C09924939415C0F60188
:10413000CE018196208120952193E817F907D1F7C8
:10414000F3CFE114F10429F0D7018C93F7013196F4
:104150007F01615001F1912CC50169A30E941A22CF
:1041600069A197FD16C0282F269526952695F6015C
:10417000E20FF11D208130E0AC014770552702C0ED
:10418000359527954A95E2F720FDDBCFB5010E94D2
:104190005822911086CFE114F10411F0D7011C923E
:1041A000C801A196EDE00C9434234F925F927F9268
:1041B0008F929F92AF92BF92CF92DF92EF92FF9237
:1041C0000F931F93CF93DF931F92CDB7DEB78C0170
:1041D0002B017A01FC0117821682A12CF801D380F1
:1041E000F201D3FC8591D3FE8191382F2F018823D2
:1041F00009F4FCC090E039830E94031F3981892BA8
:1042000021F0C8010E94831FE9CF353241F4F20149
:10421000D3FC3591D3FE31912F01353269F4C801B9
:1042200039830E941A22398197FDDEC03817B1F216
:10423000B8010E945822DAC03A3241F4D3FC3591D9
:10424000D3FE31912F01BB24B39401C0B12C712C4A
:1042500020ED230F2A3090F4FB2DF260BF2E672D46
:1042600070E080E090E040E20E94631F762EF20151
:10427000D3FC3591D3FE31912F01EACFB1FE03C0BB
:10428000711003C0B3C077247A94383619F03C36E5
:1042900061F014C0F201D3FC3591D3FE31912F01AE
:1042A000383661F4FB2DF860BF2E8B2D8460B82E5C
:1042B000F201D3FC3591D3FE31912F01332309F460
:1042C00095C0632F70E080E095E039830E940F2253
:1042D0003981892B09F48AC0B0FC07C0F701C0807E
:1042E000D180C70102967C0102C0C12CD12C3E3680
:1042F00051F4F8014681578160E070E02B2DC60132
:104300000E94571F6BCF3336A1F4B1FC02C0772453
:104310007394C8010E941A2297FD66C0C114D1048B
:1043200029F0F6018083C60101966C017A9489F721
:1043300057C03B3559F49201A601672DC8010E9470
:104340002D202C01009709F04BC045C0C8013983CE
:104350000E94831F398197FD47C03F3669F128F4D9
:10436000343631F1393679F12BC0333769F03537CE
:10437000F9F026C0C114D10429F0F6018082C601EB
:1043800001966C017A9471F0C8010E941A224C01C6
:1043900097FD08C00E94031F892B61F3B801C40177
:1043A0000E945822C114D104D9F0F601108218C01D
:1043B000FB2DF062BF2E07C08B2D8061B82E03C08D
:1043C0009B2D9064B92E2B2DA601672DC8010E944C
:1043D0009C1F811105C0F8018381807329F406C0F8
:1043E000B0FCFCCEA394FACEAA2019F08A2D90E05E
:1043F00002C08FEF9FEF0F90DF91CF911F910F9130
:10440000FF90EF90DF90CF90BF90AF909F908F90F4
:104410007F905F904F900895992788270895FC0119
:104420000590061621F00020D9F7C00108953197B4
:10443000CF010895CF93DF93EC012B8120FF33C090
:1044400026FF0AC02F7B2B838E819F8101969F833D
:104450008E838A8190E029C022FF0FC0E881F98114
:104460008081992787FD9095009719F420622B830E
:104470001AC03196F983E8830EC0EA85FB85099559
:1044800097FF09C02B81019611F480E101C080E201
:10449000822B8B8308C02E813F812F5F3F4F3F834C
:1044A0002E83992702C08FEF9FEFDF91CF91089560
:1044B000FB01238120FF12C026FD10C08F3F3FEF7C
:1044C000930761F082832F7D2064238326813781C7
:1044D0002150310937832683992708958FEF9FEF65
:1044E0000895A29FB001B39FC001A39F700D811DCD
:1044F0001124911DB29F700D811D1124911D0895ED
:104500000E947122B7FF0895821B930B08950E94A9
:104510007122A59F900DB49F900DA49F800D911DB9
:1045200011240895B7FF0C9487220E948722821BD2
:10453000930B0895DB018F939F930E948722BF9175
:10454000AF91A29F800D911DA39F900DB29F900DE2
:1045500011240895AA1BBB1B51E107C0AA1FBB1F52
:10456000A617B70710F0A61BB70B881F991F5A95FF
:10457000A9F780959095BC01CD01089597FB072E72
:1045800016F4009407D077FD09D00E94AA2207FCF8
:1045900005D03EF4909581959F4F08957095619553
:1045A0007F4F0895A1E21A2EAA1BBB1BFD010DC06F
:1045B000AA1FBB1FEE1FFF1FA217B307E407F507D3
:1045C00020F0A21BB30BE40BF50B661F771F881FAF
:1045D000991F1A9469F760957095809590959B0145
:1045E000AC01BD01CF010895052E97FB1EF4009488
:1045F0000E940B2357FD07D00E94D22207FC03D054
:104600004EF40C940B2350954095309521953F4FD7
:104610004F4F5F4F089590958095709561957F4FAE
:104620008F4F9F4F08952F923F924F925F926F92BC
:104630007F928F929F92AF92BF92CF92DF92EF9232
:10464000FF920F931F93CF93DF93CDB7DEB7CA1BB3
:10465000DB0B0FB6F894DEBF0FBECDBF09942A88DE
:10466000398848885F846E847D848C849B84AA8486
:10467000B984C884DF80EE80FD800C811B81AA8113
:10468000B981CE0FD11D0FB6F894DEBF0FBECDBFDE
:10469000ED010895EE0FFF1F0590F491E02D0994B0
:0446A000F894FFCFBC
:1046A4000000B4042000010000000100000000AB81
:1046B40005570751057E056305A0053A4C5344454B
:1046C400425547003A4C4D003A4C54003A4C500085
:1046D4003A4C43003A4C71003A4C68003A4C74002E
:1046E40025580000000000BE130914F709CC09C8BE
:1046F40009F409F8123A454445425547003A454DF4
:0A470400003A4553003A45740000E6
:00000001FF
